:020000040000fa
:020000040040ba
:10000000f0ff45208d1a4000173140007733400043
:10001000a33e4000974240008f4640000000000091
:10002000000000000000000000000000872f4000da
:100030005f34400000000000872f4000872f400001
:10004000872f4000872f4000872f400059374000fe
:10005000872f4000872f4000872f4000872f4000c8
:10006000872f40000000000059514000872f4000ba
:10007000872f400005204000872f4000872f400039
:10008000872f4000872f4000872f400075174000c2
:10009000872f4000872f4000872f40000d4d4000e4
:1000a000872f4000872f4000872f4000872f400078
:1000b000872f4000872f4000872f4000872f400068
:1000c000872f4000872f4000872f4000872f400058
:1000d000872f4000872f4000872f4000872f400048
:1000e000872f4000872f4000872f4000872f400038
:1000f000872f4000872f4000872f4000872f400028
:10010000872f4000872f4000872f4000872f400017
:10011000872f4000000000000000000000000000e9
:10012000872f4000872f4000872f4000872f4000f7
:10013000872f4000872f4000872f4000872f4000e7
:10014000872f4000872f4000872f4000872f4000d7
:10015000872f4000872f4000872f4000872f4000c7
:08016000872f4000872f4000ab
:020000040000fa
:020000040040ba
:10016800f8b500bff8bc08bc9e46704789434000fc
:10017800f8b500bff8bc08bc9e4670476543400010
:020000040000fa
:020000040040ba
:08018800bc0e000001000000a4
:020000040000fa
:020000040040ba
:10019000680e40201c000000000000007c0b402086
:1001a00004000000000000004c084020c8000000cf
:1001b00000000000e80e40200400000000000000e5
:1001c000ec0e40200400000000000000f00e402073
:1001d0000400000000000000e60e402002000000c5
:1001e00000000000a40e40200c00000000000000f1
:1001f000140f40200200000000000000840e402088
:100200001000000000000000f40e40200400000078
:1002100001000000ffffffff14094020c80000009c
:1002200000000000160f4020020000000000000047
:100230001e0f402001000000000000001f0f4020a2
:100240000100000000000000200f4020010000001d
:1002500000000000210f402001000000000000000d
:10026000220f40200100000000000000230f40206a
:100270000100000000000000240f402001000000e9
:1002800000000000250f40200100000000000000d9
:10029000140640202c01000000000000180f402030
:1002a0000200000000000000260f402001000000b6
:1002b000000000001a0f40200200000000000000b3
:1002c000270f40200100000000000000280f402000
:1002d0000100000000000000780d402040000000f8
:1002e00000000000b00e40200c00000000000000e4
:1002f000e00e4020060000000100000000010101a6
:1003000001010000c80e40200800000000000000ad
:10031000d00e40200800000000000000200e402009
:100320002800000000000000f00d40203000000018
:1003300000000000b80d4020380000000000000060
:10034000dc094020a0000000000000001c0f40203d
:10035000020000000100000001000000f80e402033
:100360000400000000000000fc0e4020040000001b
:1003700000000000600c402064000000000000004d
:10038000000f40200400000000000000290f402062
:100390000100000000000000400740200c010000a8
:1003a000000000002a0f40200100000000000000b3
:1003b000c40c402064000000000000002b0f40200f
:1003c00001000000000000002c0f40200100000090
:1003d00000000000940e402010000000000000000b
:1003e000bc0e40200c000000000000002d0f40203b
:1003f00001000000000000007c0a40208000000096
:1004000000000000fc0a4020800000000000000006
:100410002e0f402001000000010000000700000036
:100420002f0f402001000000010000000400000028
:10043000300f40200100000001000000010000001a
:10044000310f40200100000001000000ff0000000b
:10045000320f40200100000001000000fe000000fb
:10046000040f40200400000000000000280d402080
:100470005000000000000000800b402078000000c9
:1004800001000000900b4020880b4020900b402082
:1004900000000000000000002500000008004020cf
:1004a0000004000000000000000000000000000048
:1004b000000000000000000000000000000000003c
:1004c000000000005d53400000000000000000003c
:1004d0000000000000000000b139400000000000f2
:1004e000000000000000000000000000000000000c
:1004f000000000000000000000000000000040209c
:100500000804000000000000480e40202000000009
:1005100001000000010000000300000000000000d6
:1005200000000000000000000000000000000000cb
:10053000d80e4020d80e4020080000000000000027
:10054000080f4020040000000000000008044020c4
:100550000c02000000000000f80b402068000000c2
:100560000100000001000000030000000000000086
:10057000000000000000000000000000000000007b
:10058000ed38400000000000000000000000000006
:1005900063534000175140000000000000000000bd
:1005a000000000000000000000000000000000004b
:1005b000000000000000000000000000000000003b
:1005c0000000000000000000000000000c0f4020b0
:1005d0000400000000000000100f40200400000094
:1005e0000000000000000000000000002222222283
:020000040000fa
:020000040040ba
:1005f0002de9f04f2ded0c8b1d4692ed008bd1e9ce
:100600000083b5eec08b8db0f1ee10fa03930b6949
:100610000790d1f808900493cc6807d418f0040f21
:1006200035d118f0080734d0202302e02d23b1ee95
:10063000488b237009f1ff36012718ee901adff876
:1006400078b321f0004318ee102a4ff0000a5b4502
:1006500008bf524504eb0700a5f141011bd1192940
:1006600004eb070094bfd049d04904f047fecf48bf
:1006700004f0bafdcdf8008002464b4621460798ab
:1006800002f00afd0db0bdec0c8bbde8f08f2b2302
:10069000cfe74e46d1e79b4508bf924507d21929bf
:1006a00094bfc349c34904f029fec248e0e73022a1
:1006b0001a2907f101030270b5ee408b34bf5822ae
:1006c0007822f1ee10fae254b7ee009b07f1020730
:1006d000a6f102064ff0000a40f0e880b0ee49bbf8
:1006e000b0ee48cb039b9fedaadb002bacbf9b4633
:1006f0004ff0180b0025b0ee4dab8cee0b0b0691b6
:1007000002f0b2f86b1c0593039b00ee4bcb002b61
:100710002bee0dbb069904dab5ee40cbf1ee10fae4
:1007200005d0ab4500f3e5800bf101030593b2ee74
:10073000007b2bee077bb4eec7cbf1ee10fa00f195
:10074000da80b4ee47cbf1ee10fa09d1bdeec00b62
:100750009fed916b10ee103a13f0010f06fe077b30
:1007600038ee078b18ee900adff84cc218ee102a0c
:1007700020f000434ff0000b634508bf5a453ff49b
:100780006eaf049a4ff0000b053a3d46cdf818b015
:100790005b460992099aaa421ddd88ee090b0a936d
:1007a000089102f061f8fdeec07bb0ee40bb17eea1
:1007b000900a08990a9b002840f0a080002b00f0c6
:1007c0009d800bf1010b059a0bee498b01339a4288
:1007d00029ee0a9bded1069bdbb96319bbf1000f42
:1007e00000f0ec80039a002a40f3e88018f0010f33
:1007f00040f0e4802e221a700beb050222443020d8
:1008000003f8010f9342fbd15d446fea0b0b0135f6
:100810005e4463190393049b04980022013b9245b4
:100820006255b8bfcaf1000ae254c0f1020bb8bf6a
:1008300001224ff00a0cbaf1000f40f096800beb4a
:10084000030ebef1010f00f09080002a03f1ff3c7f
:1008500014bf2d222b22023b1a2904f80c2034bf8e
:10086000502270229d4204eb0301e25402da039805
:1008700004f044fd08f00303022b11d1b51e002d36
:100880000edd204604f0b0fc013e2044031b9f42d5
:1008900077dd2a463021e01904f09efc4ff0000974
:1008a0002046e5e60af1010ab0ee479b39ee097be6
:1008b000b4eec78bf1ee10faf4d5b6ee007bb0eed5
:1008c000475b9fed376bb4eec98bf1ee10fa7ff505
:1008d00005af29ee074bb5ee404bf1ee10fa04bf21
:1008e00029ee069b28ee068b29ee059b0af1ff3abe
:1008f000e9e7059d01e79fed287b31e7069a32b9cc
:100900002bb12e2262550122013e01350692089537
:1009100004eb050c5a4604e04ff0300e0cf801ebe6
:10092000013a002af8d10928089a05f1010506f1d3
:10093000ff36d4bf3030573019295d445a44a6ebf6
:100940000b060ed840f0200cacf1610cbcf1190f75
:1009500007d8cde90a32089104f074fcdde90a32c7
:100960000899a0544ff0000b2de7bafbfcfe013ba9
:100970000cfb1eaa0af1300a04f803a0013ef2465d
:1009800059e710f80139835580e700bfaff30080c5
:10099000000000000000b03f000000000000000068
:1009a0000000000000005043085240000c5240007c
:1009b00010524000145240000000f07f18f0100f59
:0c09c0003ff427af2e2201351a7022e709
:020000040000fa
:020000040040ba
:0409cc000830704738
:020000040000fa
:020000040040ba
:1009d0002de9f04f2ded0a8b92ed00bb8fb0b5eef7
:1009e000c0bb05938b680293f1ee10fa0b69079078
:1009f0008946d1e900870893cd6808d418f0040f20
:100a000035d118f00803039333d0202302e02d23bf
:100a1000b1ee4bbb2b70029b5e1e012303931beeba
:100a2000901a21f00043039969180491c2491bee02
:100a3000102a00208b4208bf82421cd1059b0498db
:100a4000413b192b94bfbd49bd4904f057fcbc483c
:100a500004f0cafbcdf800800246029b07982946a5
:100a600002f01afb0fb0bdec0a8bbde8f08f2b2310
:100a7000d0e7029ed3e7994208bf90420ad2059b75
:100a80000498413b192b94bfae49af4904f036fca2
:100a9000ad48dde7b5ee40bbf1ee10fab2ee049bd7
:100aa000b7ee00ab4ff0000416d1059804f0c3fb7d
:100ab000002fc0b2c0f2328167282ad1002f08bfb0
:100ac0000127231d02dbbc42c0f220814ff0650ae2
:100ad0002fe00134b0ee47ab2aee097bb4eecb7bbe
:100ae000f1ee10faf5dd0023984a9fed8f7b0ae0c6
:100af000944205da23b92bee07bb2aee07ab01239c
:100b0000013c8aee09abb4eecabbf1ee10faefd4a9
:100b1000cbe78246baf1660f07f1010709d1002c35
:100b200002dab7ee00ab0024672818bf3f194ff078
:100b3000660a4ff0000bb0ee4a8bb0ee4bcb8cee5a
:100b4000080b069001f090fe0bf1010bfdeec07b4f
:100b50005f4590ee08cb17ee903ab1ee4ccb88eea5
:100b6000098b0698ebd1b1ee047b28ee077bb4ee3f
:100b7000c7cbf1ee10fa74d4b4ee47cbf1ee10fa15
:100b800005d19fed6b6b13f0010f06fe077bbaf1e9
:100b9000650f14bf21460021cb1b0a934ff0000bb9
:100ba00008f01003039fcdf818b00b933bee07bb82
:100bb0000a9b09978b4204d0d9f81030053bbb4201
:100bc00052d8069b33b918f0100f1fbf099a2e2375
:100bd000ab5401370022baf1650f05eb0700ea5567
:100be00029d1089b0899013b9442ea54c1f1030eb4
:100bf000bcbf644201220a21002c79d10eeb030c08
:100c0000bcf1000f74dc002a03f1ff3114bf2d2268
:100c10002b226a54059a413a023b192a98bf4ff099
:100c2000450a9f4205eb030105f803a0a6f1020661
:100c300001da04f063fb08f00303022b0fd1002e4e
:100c40000ddd284604f0d0faab19039a824259dd33
:100c500032463021049804f0bffa0023029328465c
:100c6000f6e69fed337b92e78bee0a0bcde90c1095
:100c700001f0fafdfdeec07b0b9b17ee902a1343ab
:100c8000dde90c100ed167280cd1002917da0bf121
:100c900001039aee00bb0139b1ee4bbb8aee09ab02
:100ca0009b4685e7069b53b9002908da099b4ff05c
:100cb0002e0c05f803c001230137013e06933a4686
:100cc00005eb070e5b4604e04ff0300c0ef801cb4d
:100cd000013b002bf8d12a44944617ee902a0137a5
:100ce000013e30325f44a6eb0b060cf80b20d0e738
:100cf000b4fbf1fc013b01fb1c443034ec54013edd
:100d0000644679e72a5c1a5401389ee7002cbff646
:100d10000eaf4ff0660afde60627d2e66728fbd045
:100d200082460627f6e600bf0000000000005043a0
:100d300000000000000000000000f07f185240009a
:100d40001c5240002052400024524000d4feffffbd
:020000040000fa
:020000040040ba
:100d50002de9f04fadb00027dff8e4a2039106467d
:100d60001546b8464ff0ff3903990b78002b00f079
:100d7000f9800cabcde907890a938023cdf8248054
:100d80000b9300240b5d0bb1252b26d134b12246e9
:100d9000304603f05ffc039b23440393039b1a78c4
:100da000252a40f0d78003f1010bcdf80cb0039851
:100db00003782b2b1ad025d8202b1bd0232b1dd00a
:100dc0002a2b27d003f044fa0990039b1a78303a73
:100dd000092a2ed801330393f7e70134d2e7079ba2
:100de00043f00103013007930390e0e7079b43f0d2
:100df0000403f7e7079b43f00803f3e7079b43f07f
:100e00001003efe72d2bead0302bd9d1079b43f00d
:100e10000203e7e72b681a1d1b682a600130002bcc
:100e20000390099305da079a5b4282f00102079268
:100e30000993079bda0744bf23f002030793039b40
:100e40001a782e2a0dd1581ccdf8208003905a789c
:100e50002a2a25d1023303932b681a1d1b682a60a6
:100e6000089303a803f084fc039b0190187804f016
:100e7000e2f96928019979d032dc632800f0c68054
:100e800019dc252800f0d080612853d025238df867
:100e90001030cdf80cb0cdf81c80cde90898c0e03a
:100ea00003f0d6f90890039b1a78303a092ad8d86b
:100eb00001330393f7e7642858d06728e6dc2a4615
:100ec00004a803f089fe002800f09c80039b5a1cb4
:100ed00003921b7804aa07a93046fff779fd38e092
:100ee000702873d015dc6e2800f087806f28cdd174
:100ef0002b46002204a801f021ff002800f0828088
:100f0000039b04aa013307a93046039302f06efa4b
:100f10001fe075283ad0782848d07328b6d18029a8
:100f200070d1039b2a6801330393131d2b60126851
:100f300000235be02a4604a803f04efe002861d09f
:100f4000039b5a1c03921b7804aa07a93046fff79b
:100f50004ffb04443c44a7426edd384b4f221a60dd
:100f60004ff0ff3738462db0bde8f08f2b460122f9
:100f700004a801f0e3fe002844d0039b04aa013337
:100f800007a93046039301f0e3fde2e72b46002278
:100f900004a801f0d3fe002834d0039b04aa013337
:100fa00007a93046039302f051ffd2e72b460022f7
:100fb00004a801f0c3fe28b3039b5a1c03921b78bc
:100fc00004aa07a9304601f0b3f8c2e72b46002275
:100fd000f02104a801f0b2fea0b1039b01330393fa
:100fe000dde90423134306d10023524607a9304606
:100ff00002f000ffade77823e2e72b463a1904a898
:1010000002f0c8f8039b01330393a3e78029f9d1c9
:10101000039b013303932b681a1d1b682a608df80c
:101020001030012304aae1e78029ebd1039b8df85e
:10103000100001330393f4e7274695e60c0f402098
:041040002a4f4000f3
:020000040000fa
:020000040040ba
:101044002de9f047089e04468846002b40f0858031
:101054008a42154648d9b2fa82f24ab1c2f120074f
:1010640001fa02f320fa07f7954047ea030894408f
:101074004fea154e230cb8fbfef71ffa85fc0efb56
:10108400178843ea084307fb0cf1994209d9eb1886
:1010940007f1ff3080f0e380994240f2e080023fa4
:1010a4002b445b1aa4b2b3fbfef00efb103344eaec
:1010b400034400fb0cfca44509d92c1900f1ff33af
:1010c40080f0cb80a44540f2c88002382c4440ea2a
:1010d4000740a4eb0c0400271eb1d4400023c6e94a
:1010e40000433946bde8f087002a53d0b2fa82f2b1
:1010f400002a40f0b680491b4fea154e1ffa85f8c6
:101104000127b1fbfefc230c0efb1c1143ea014337
:1011140008fb0cf1994207d9eb180cf1ff3002d20d
:10112400994200f2ec808446591aa3b2b1fbfef056
:101134000efb101443ea044408fb00f8a04507d949
:101144002c1900f1ff3302d2a04500f2dc801846ce
:10115400a4eb080440ea0c40bee78b4208d9002ef9
:1011640078d00027c6e9000138463946bde8f08743
:10117400b3fa83f77fb98b4202d3824200f2bd8077
:10118400841a61eb030301209846002ea9d0c6e916
:101194000048a6e7ffdec7f12005bb4022fa05fca4
:1011a4004cea030c01fa07f420fa05f821fa05f3d6
:1011b4004fea1c4e48ea0404b3fbfef9210c0efb73
:1011c40019331ffa8cf841ea034309fb08fa9a45dc
:1011d40002fa07f200fa07f10bd91ceb030309f139
:1011e400ff3080f088809a4540f28580a9f1020999
:1011f4006344a3eb0a03a4b2b3fbfef00efb10336b
:1012040044ea034400fb08f8a04508d91ceb040495
:1012140000f1ff336bd2a04569d90238644440ea37
:101224000940a4eb0804a0fb02894c45c6464b4682
:1012340054d351d0002e69d0b1eb0e0264eb0304f9
:1012440004fa05f522fa07f3fc401d43c6e90054ed
:10125400002746e73746304643e7184637e7074650
:101264001fe7c2f1200320fa03f7954001fa02f0c8
:1012740021fa03f34fea154e3843010cb3fbfef792
:101284001ffa85f80efb173341ea034107fb08f305
:101294008b4204fa02f407d9691807f1ff3c28d2fb
:1012a4008b4226d9023f2944cb1a81b2b3fbfef00c
:1012b4000efb103341ea034100fb08f38b4207d9cc
:1012c400691800f1ff3c10d28b420ed90238294430
:1012d400c91a40ea074714e74145abd2b8eb020efe
:1012e40069eb0c0201381346a4e76046f0e71846a0
:1012f40095e76746d8e781467be7384645e7acf192
:10130400020c2b4410e702382c4421e73746e8e668
:020000040000fa
:020000040040ba
:1013140052545420416c61726d0a0d00526561642f
:10132400696e6720726567697374657273203078bb
:10133400303920616464726573733a202564200a2d
:101344000d0000007e7e7e7e7e7e7e546573746911
:101354006e677e7e7e7e7e7e7e0a0d0020506172e8
:10136400742049443a202020202020202025303297
:10137400580a0d00205265766973696f6e204944de
:101384003a20202020253032580a0d007e7e7e7eb1
:101394007e7e7e7e7e7e7e7e7e7e7e7e7e7e7e7e69
:1013a4007e0a0d0052656164696e6720496e74653a
:1013b400727275707420456e61626c650a0d00006e
:1013c40052443a205265673a20253032583b205621
:1013d400616c75653a20253032580a0d0000000012
:1013e4005368757474696e6720446f776e0a0d00d4
:1013f40057523a205265673a20253032583b2056de
:10140400616c75653a20253032580a0d00000000e1
:10141400456e61626c6520496e7465727275707494
:101424000a0d000053657420746865204649464fd0
:1014340020417665726167650a0d0000526561643a
:1014440020746865204649464f204176657261677d
:10145400650a0d0057616b652075700a0d00000068
:10146400436865636b20496e746572727570740aa3
:101474000d0000007e7e7e7e5465737420436f6d84
:10148400706c6574657e7e7e7e0a0d005057525fd7
:101494005244595f494e54205472696767657265b6
:1014a400640a0d00506172742049443a2025325870
:1014b4000a0d00005265766973696f6e2049443adb
:1014c400202532580a0d00004449455f54454d50cb
:1014d4005f524459205472696767657265640a0de6
:1014e4000000000050524f585f494e542054726916
:1014f4006767657265640a0d000000007e7e424fd6
:101504004f545f55507e7e0a0d0000005061727486
:101514002049443a20202020202020202530325801
:101524000a0d00005265766973696f6e2049443a6a
:1015340020202020253032580a0d00007e7e494e9e
:1015440049545f4d4541535552457e7e0a0d000076
:1015540053797374656d2074696d652069733a20dd
:10156400253032643a253032643a253032643a25e3
:101574003032643a253032643a253032640a0d0040
:101584007e7e574149545f464f525f494e547e7e9a
:101594000a0d000025640a0d000000007e7e5449f7
:1015a4004d45525f434f4d504c4554457e7e0a0d88
:1015b400000000007e7e4552524f527e7e0a0d008e
:020000040000fa
:020000040040ba
:1015c4002de9f04f87b0039003a802f069ff0028cb
:1015d40003da002007b0bde8f08f039b1b095d1ef2
:1015e400202d0fd9023b5e4ab3f5007f35bf02ebd5
:1015f400d30302ebd31313f8045c13f8045c34bf75
:10160400013511350123a5f12001c5f1200203faaa
:1016140001f923fa02f203fa05f8d8f1000849eabd
:10162400020969eb4909cde90089dff84081dff857
:1016340030914746d8e90023009902ea010a01994a
:1016440003ea010b5aea0b0342d1039b05a81033aa
:10165400059303f0d6fc18b9424b0c221a60b9e783
:10166400d8f80852a84206d0059b103b05930123e5
:1016740000f110058360059bea18012143f0010382
:10168400b5f1080442f8083c42f8041cc7f80822e3
:1016940045f8043c9dd0204603f064f988b155f820
:1016a400083c55f8041c23f00103e31a5a6822f09d
:1016b40001020a445a6055f8041c21f001016250e9
:1016c4001c462046039903f07df904f1080081e7e4
:1016d4005446254bbaf1000f34d1cbf1000000ea97
:1016e4000b00434309ebd36393f83c602036304648
:1016f40003f070fb731c57f8334007ebc303083b3c
:101704009c4297d0272e26dd0235ae4201dc3f2ec7
:1017140021d16268039922f00102551a284603f088
:1017240009f8864217d1e068a6686318d8609e60fd
:1017340083609868c36041f0010060505d60a5500b
:101744006060bee7caf100002040434309ebd36365
:1017540093f83c60cbe73146204602f01dfbb0e72e
:10176400383c40000c0f402029e66b070804402059
:020000040000fa
:020000040040ba
:1017740010b5634b1b6a13f4807f04d0614aff21c8
:1017840011770121517713f0010106d05c4a08203a
:101794001060042010600720906213f4007f02d0d0
:1017a400584a01201077574a527f8ab9554a127f06
:1017b40052b2013a032a0bd8dfe802f002541c7833
:1017c400504bdb6883b100214e4b188801f064fa5a
:1017d4004c4b1b7f5bb2b3f1ff3f6dd0494b1b7f7a
:1017e4005bb2052b78d010bd0121464b188801f05f
:1017f40053faede713f0040fead0424b5a69db6861
:10180400013b9a4209d03f4b5968501c58618a5c8d
:101814003b4b5a633a4b1b6adae73a4b1b699bb959
:10182400384b5968501c58618a5c354b5a63022204
:101834001a6004229a621b6a13f0010f314b14bf21
:10184400052204221a77e5e772b62d4a042393622f
:101854002c4b586859694c1c5c61435c536302f01f
:10186400bbffd7e713f0020fb2d0264a1369023b3d
:1018740092699a4216d0224b1c6b224b9868996944
:101884004a1c9a6144541b699a42a1d11c4b0222fe
:101894009a621b6a13f0010f1a4b14bf052204222b
:1018a4001a7795e7164b02221a60e4e700298fd0d5
:1018b400144b05221a778be7124a00231377104b37
:1018c400072199620821196004211960136a002b09
:1018d40084d0506a984781e70a4b00225a771a77d6
:1018e400074a0721916208211160042111601b6ad3
:1018f400002b3ff478af034a506a984773e700bf60
:0819040000800140200e40208c
:020000040000fa
:020000040040ba
:10190c0008b5574b5b7803b908bd01f053ff544b36
:10191c00197b544b1b68994206d0534803f002faca
:10192c004f4b1a7b4f4b1a604d4b1b7b0a2b00f213
:10193c009380dfe803f0061e2d3b4c59916791759f
:10194c00840001231a460021484802f0cffa484b84
:10195c001860b0f1ff3f08d0464b0a221a8003f002
:10196c00ddfb3f4b01221a73cee7434803f0daf953
:10197c00f2e7404b1b88002bc6d103f0c7fb02f0eb
:10198c00a5ff3c4b64221a80354b02221a73bbe72d
:10199c00384b1b88002bb7d1384b04225a63354b7c
:1019ac0005221a802e4b03221a7302e0314b1b883e
:1019bc0023b103f0dbf903f05bf9a5e701f082fd3d
:1019cc002c4b64221a80264b04221a73f1e7294b04
:1019dc001b88002bedd102f015f8264b64221a80df
:1019ec001f4b05221a73e4e7224b1b88002be0d116
:1019fc00012002f091fd1f4b64221a80184b062225
:101a0c001a73d6e71b4b1b88002bd2d1012002f096
:101a1c00f5fb184b64221a80114b08221a73c8e785
:101a2c00144b1b88002bc4d1002002f0e7fb114b98
:101a3c004ff4fa721a800a4b0a221a73b9e70d4b4b
:101a4c001b88002bb5d1064b00229a72094ac8217b
:101a5c00118003221a73ace7022b7ff655afa8e76f
:101a6c00840e4020f40e4020a848400061524000f3
:101a7c00f00e4020e60e4020bc48400000100e4006
:020000040000fa
:020000040040ba
:101a8c0008b54f4b98474f4b9847eff3108172b600
:101a9c004d4ad2f8883043f47003c2f88830bff353
:101aac004f8fbff36f8f01b962b6484b484a5a60eb
:101abc009a6812f0010ffbd0444bdb6813f4c07f23
:101acc0013d0444b0c221a60404b434a5a609a681c
:101adc0012f0010ffbd03d4b404a5a609a6812f04d
:101aec00010ffbd03e4b3f4a1a60bff34f8fbff341
:101afc006f8f354cd4f8903223f00103c4f8903238
:101b0c00d4f8943223f00103c4f89432bff34f8f0e
:101b1c00bff36f8f01f076fa334b23f07f03a36092
:101b2c00324b9847636913f4003f12d1bff34f8fc8
:101b3c00bff36f8f0022c4f85022bff34f8fbff357
:101b4c006f8f626942f400326261bff34f8fbff353
:101b5c006f8f1d4b5b6913f4803f29d11a4b002208
:101b6c00c3f88420bff34f8fd3f88030c3f3c9067a
:101b7c00c3f34e335a0143f6e075134802ea0504e9
:101b8c00334644ea8371c0f86012013bb3f1ff3f66
:101b9c00f7d1203a12f1200ff0d1bff34f8f0a4a40
:101bac00536943f480335361bff34f8fbff36f8f8f
:101bbc000f4b98470f4b984700f0d4f8fee700bf47
:101bcc00f7494000f749400000ed00e0000c0e40e2
:101bdc000d00005afc0e40200c08005a0c07005a4d
:101bec0000180e40010000a500004000dd3b400045
:081bfc00f7494000f7494000e1
:020000040000fa
:020000040040ba
:101c0400f0b5b5b005460e460023adf80e30437866
:101c1400022b05d0032b46d00024204635b0f0bd5e
:101c240001eb4103009304ab01224d49007802f01b
:101c3400f7fe044603f022fa0028fbd10023adf896
:101c44000e30bdf80e309bb240f2ed2293420ad81a
:101c5400bdf80e3001339bb2adf80e30bdf80e3036
:101c64009bb29342f4d9af78c7f11207ffb2002eaa
:101c7400d3d004aa3b4d05eb8601c7f1100ec7f182
:101c8400080c137803fa0ef3d07800fa0cf003432f
:101c940090793841034323f07f4345f8043b0332f2
:101ca400a942eed1b9e701eb41035b00009304ab19
:101cb40001222b49007802f0b3fe044603f0def95a
:101cc4000028fbd10023adf80e30bdf80e309bb2d6
:101cd40040f2ed2293420ad8bdf80e3001339bb294
:101ce400adf80e30bdf80e309bb29342f4d9ad7806
:101cf400c5f11205edb2002e8fd004aa1948dff801
:101d040068c000eb8601c5f11007c5f10806137819
:101d1400bb4092f806e00efa06fe43ea0e0392f880
:101d24000ce04efa05fe43ea0e0323f07f4340f82d
:101d3400043b937cbb4092f818e00efa06fe43ea9b
:101d44000e0392f81ee04efa05fe43ea0e0323f05a
:101d54007f434cf8043b06328842d8d15de700bf8c
:0c1d64002e0f4020fc0a40207c0a40208a
:020000040000fa
:020000040040ba
:101d70002de9f04f93b0002001f0cef94c4b00223a
:101d80001a7003f019f802f09ffc4a4803f0bcfafd
:101d9000dff81c81dff8289109f529730593dff836
:101da00014a1dff820b10bf162071ee009f5f6700f
:101db00002f0beff504601f0e3fe014609f5fe7059
:101dc00002f0b6ff504601f0dff8014609f5057054
:101dd00002f0aeff01f04af80a21504603f0c4f9c0
:101de00003f0b2f8012388f8003003f081fa98f884
:101df0000030042b57d801a252f823f0ad1d40004b
:101e0000111e40004d1e4000971e40005b1e40000a
:101e100009f50b7002f08cff07a800f0c1fc079bce
:101e20000293089b0193099b00930a9b0b9a0c99c0
:101e300009f5107002f07cff504602f0ecff1e4bdb
:101e400000221a60022388f80030cee709f51c70e2
:101e500002f06eff03f00af8c7e7504602f0ccff2d
:101e6000abf1020409f5217534f8021f284602f08f
:101e70005fffbc42f8d1114dac1e623509f52176e9
:101e800034f8021f304602f053ffac42f8d102236f
:101e900088f80030a9e709f5237002f049ff012313
:101ea00088f80030a1e7059802f042ff9de700bfe7
:101eb0002c0f402040074020000f4020c40c402041
:081ec00014134000600c4020e7
:020000040000fa
:020000040040ba
:101ec800f0b4416901f26c714161c76885690135f7
:101ed80003690133464c84fb01246411ca17a61a0e
:101ee8004ff0640c0cfb1616a41a4249a1fb05c25c
:101ef800d20802eb820ca5eb4c0505eb0215a1fb01
:101f080003c24fead20c0ceb8c02a3eb420202eba9
:101f18000c12120442ea4552a1fb0753dd0805ebf7
:101f28008503a7eb430303eb051342ea0362a1fb16
:101f38000453db0803eb8305a4eb450404eb03140b
:101f48002243a1fb0643dc0804eb8403a6eb43030e
:101f580003eb041342ea0322856844680668a1fb80
:101f68000530c00800eb8003a5eb430505eb001521
:101f7800a1fb0430c30803eb8300a4eb400000eb93
:101f88000310000240ea0540a1fb0613db0803eb3f
:101f98008301a6eb410101eb031340ea0301164b51
:101fa800186820f0030018601020d861184683696b
:101fb80013f0040ffbd01048036843f003030360d9
:101fc800836913f0010ffbd00b4bd86940f00b006d
:101fd800d861da6099601a6822f003021a60db6a35
:101fe80013f0030f0cbf01200020f0bc704700bfa6
:0c1ff8001f85eb51cdcccccc60180e4006
:020000040000fa
:020000040040ba
:1020040038b5484b5b6913f0e0030fd1454b5b696e
:1020140013f0010f1cd1434b5b6913f0020f04d082
:10202400404b1b6913f0020f44d138bddbb23e4c68
:1020340084f82d3002f00afd3a4be122da600023e5
:1020440084f82c30636a002b69d0a06a9847dde7d6
:10205400354b93f82c30002bddd03249324b4a6992
:1020640012f0010f13d01a6ad86990420fd98a6905
:10207400c2f30802486810f4003f9c69186a00f132
:1020840001051d6214bf24f810202254e7e7264bf3
:102094001a6adb699a42bed3234b002283f82c20b0
:1020a400204ae121d1605b6a002bb4d01e4a906ab9
:1020b4009847b0e71c4b1b7d002bb6d01a4b5868d1
:1020c4001c68184b184a04e091684d1c9560615ccb
:1020d400d961596911f0020f0fd0916888420cd967
:1020e400596811f4003fefd091684d1c956034f8a5
:1020f4001110c1f30801d961ebe70b4b9a685b68d7
:102104009a4292d3084b00221a75064a0221d160e2
:10211400db68002b89d0044a1069984785e7014b96
:0c2124005b6978e700400240f00d4020ad
:020000040000fa
:020000040040ba
:102130002de9f04f89461946d9e90153d9f80080b5
:10214000d9f80ca0002d8bb0a8bf28f00208834658
:10215000b8bf012518f010009646d2e9006702903a
:1021600051d056ea07024ed0981e18f00804039486
:10217000d9f8104018bf00f1ff30401b013c4ff070
:10218000000c049008f0020005900af804c0a1f1c8
:1021900041000690012c0add56ea070235d1002dd8
:1021a00033dc049a5019002801dd059a6abb029ab3
:1021b00062b1dee9006756ea070207d00aeb0402c3
:1021c000023c02f8011c30220af80420039a1ab1da
:1021d000013c20220af80420d9f81020cdf8008014
:1021e000013a121b0aeb0401584600f055ffdbf8d8
:1021f0000430db0504d5d9f804309842b8bf18463e
:102200000bb0bde8f08f1846afe706f00f00069a56
:102210000928d4bf30305730192a04f1ff340ed8c2
:1022200040f0200cacf1610cbcf1190f07d8cde9de
:1022300008e1079303f006f8dde908e1079b0af8d7
:102240000400300940ea07704fea171c013d0646ba
:0422500067469fe757
:020000040000fa
:020000040040ba
:1022540008b5364b1978812921d01a469b785278d3
:10226400334802f063fd314b1b78713b292b59d85d
:10227400dfe803f01c2358585858585858585858f1
:102284005858582227585858585858585858585831
:102294005858585858585858585858225850234b3a
:1022a4005a788121234802f041fddce7224b1f4a82
:1022b40092789a7207221a7308bd1f4b09221a7367
:1022c400fae71a4b5b78033b092bf5d801a252f8c5
:1022d40023f000bf09234000bd224000bd2240007e
:1022e400bd224000bd2240001123400001234000d4
:1022f400bd224000bd22400011234000002002f016
:10230400b3ffd9e7012002f0afffd5e7032002f0c5
:10231400abffd1e7094b19780239c9b2084801f07b
:102324009df8c9e7074802f07ffcc5e7140940207f
:102334008c404000ac404000840e40201f0f4020e1
:0823440016094020c4404000ce
:020000040000fa
:020000040040ba
:10234c002de9f84300286ad050f8043ca0f10804a9
:10235c0023f00106a719a259934200d0ffde7a6838
:10236c0023681340da070fd4204602f0f7fa00284e
:10237c0057d1384602f0befb0028f0d07b6823f022
:10238c0001031e441f44eae746f001036360304634
:10239c003b6002f0cbf9054602f018fd23687a6821
:1023ac001340db07e0d5dff88ce0dee90089c5f1ee
:1023bc00200ca5f1200228fa05f009fa0cfc29fae8
:1023cc0002f240ea0c001043012100ea0102002352
:1023dc001343c5f120007346a5f1200212d121fa56
:1023ec0000f001fa02f2a94042ea00021ebfdef838
:1023fc0000000143cef8001022b1def804100a43ad
:10240c00cef80420681c03ebc003a3f1080266603d
:10241c003e60a2605a68e2605c60e3689c60bde864
:10242c00f883236823f00103e41a636823f00103a3
:08243c001e449ee70804402045
:020000040000fa
:020000040040ba
:102444002de9f0472e4d284601f03cfb0446284672
:1024540001f066fb054614f0010f0ad115f0020fd6
:1024640038d114f0100f39d114f0800f3ad1bde8ef
:10247400f0874ff00108234b83f80080224f07f5c3
:10248400be7002f053fc1e4e304601f077fbdff8bd
:102494008ca08af80000304600f074fddff88090cc
:1024a40089f800009af8001007f5ca7002f03efca3
:1024b40099f8001007f5d27002f038fc00f0d4fc53
:1024c4000a21304602f04efe02f03cfd0f4b83f829
:1024d4000080c3e70e4802f029fcc2e70d4802f071
:1024e40025fcc1e71f210648fff78afb00f042ffe5
:1024f400094b1b68312bbad9044b04221a70b6e776
:10250400400740202a0f4020141340002c0f402085
:10251400cc144000e8144000000f4020290f402054
:042524002b0f402019
:020000040000fa
:020000040040ba
:1025280010b40022324bc3f81421324918234b60ef
:102538006ff018030b604ff0ff334b650b66c1f863
:102548009030c1f8a0300a614b618a634020c1f81d
:10255800b000c86cc1f8182101f500710a670320a2
:10256800486748606ff0030008604b650b66c1f868
:102578009030c1f8a030042008616ff00400486171
:102588008a63c1f8182101f500710b604b650b6671
:10259800c1f89030c1f8a0300a614b618a63c1f874
:1025a800182101f500710b604b650b66c1f890307e
:1025b800c1f8a0304ff4006008616ff400644c610a
:1025c8008863c1f8182101f500710b604b650b6633
:1025d800c1f89030c1f8a0300a614b618a63c1f834
:1025e8001821054b062119805a605df8044b704785
:0c25f80000800840000e0e40b00e402095
:020000040000fa
:020000040040ba
:10260400f8b5324c256b63689b69984760616069d3
:1026140002f0c0fb064602f051fc002d4dd094f8a8
:102624002c30013384f82c30304602f06bf9246be3
:102634002cb1a3681bb901250027244e11e0244db9
:1026440000242e4627461fe0e06901f0e3ffe3681b
:102654000bb120699847346b002cf0d0a368002b91
:10266400edd125756575a37813b9e368002bebd11b
:10267400204601f015fca378002be8d16770e6e74b
:1026840001342035052c12d006eb44135b7d002b5e
:10269400f6d006eb44135f75ab78012bf0d16b6871
:1026a40006eb44129360284600f096fbe8e7074add
:1026b40092f82c30013b82f82c3002f02dfe0446b7
:1026c40000f092f9204602f02bfef8bdb80d402030
:0426d400dc094020bd
:020000040000fa
:020000040040ba
:1026d800f8b5294e294c2a4d37e0aa2833d10123d1
:1026e800237030e010b9022323702ce000232370fc
:1026f80029e000232b70234a1380234b1870234ba7
:102708001870234b1870032323701ee01f4a137898
:10271800034413701e4a1378013bdbb21370194946
:102728000a88571c0f801b49885463b904232370f7
:1027380009e0164b1b78184410f0ff0f01d1012354
:102748002b70002323702b78a3b9337893b102f050
:1027580027f82378042bf6d801a252f823f000bffb
:10276800e3264000ed264000fb26400015274000e8
:102778003b274000f8bd00bf270f4020210f402015
:10278800220f4020160f40201f0f40201e0f402010
:08279800200f4020140940202d
:020000040000fa
:020000040040ba
:1027a00010b42f4b9a689b68934204d02c4b9a68c4
:1027b00099689142fbd12a49cb68c968994204d0f3
:1027c0002749cb68cc689c42fbd1c2f3015101eb95
:1027d0008101c2f3034404eb41018160c2f30211a1
:1027e00001eb810102f00f0404eb41010160c2f32f
:1027f000023101eb8101c2f3032202eb410242608c
:10280000c3f3017202eb8202c3f3036101eb4202e4
:10281000c260c3f34252013a8261c3f30342013af8
:10282000c3f30054a100214402eb41020261c3f34f
:102830000322a2f26c72c3f3033101eb810102ebbc
:102840004102c3f3021101eb810103f00f0303eb1b
:102850004103642101fb032343615df8044b70478e
:0428600060180e40ae
:020000040000fa
:020000040040ba
:042864008830704701
:020000040000fa
:020000040040ba
:1028680053ec102bc3f30a512de9f04140f2fd70ef
:102878004e1e86421d4644d8a1f2ff30002835dba3
:10288800332831dc264bc0f120084ff0ff3c03fa17
:1028980008f2a1f21f412cfa00fc10ee104a4cea93
:1028a800020c23fa01f24cea020c23fa00fe04eab5
:1028b8000c0605ea0e0724ea0c0256ea070425ea84
:1028c8000e030fd0002a73f100040bda4ff48015c1
:1028d80005fa08f425fa01f10c43121925fa00f05b
:1028e80040eb030343ec102bbde8f0819fed0a7b1e
:1028f800bfee000b002a73f1000327fe000bbde8b2
:10290800f0810029f0d10a4603f0004343ec102b74
:10291800eae700bfaff300800000000000000000fd
:04292800ffff0f009e
:020000040000fa
:020000040040ba
:10292c002de9f047284b1e78022e36d089b24a1e6c
:10293c0092b241b3254bb3f800c0254b1f8801322e
:10294c000244644605464ff0000e0138014489b23a
:10295c00dff888904ff001081ffa85fa631c9bb2d0
:10296c0015f8010b09f80400b3f5967f34bf1c462b
:10297c000024a74213d0c6469542edd1134b1c80c0
:10298c00114b01221a70134b1b78b3b1032b04d1da
:10299c00104b02221a7001f099fbbde8f0870b4b2b
:1029ac001c80514505d0084b1e70084ba3f800c085
:1029bc00f3e7054b02221a70e5e7064b01221a7069
:1029cc00054b03221a70e8e7260f4020180f402011
:1029dc001a0f4020230f4020250f402014064020c2
:020000040000fa
:020000040040ba
:1029ec002de9f8432a4b1a6b59691961002a40d01a
:1029fc009368b3f5004f33d3254b5b6947f6ff74ef
:102a0c00002514eb030845f10009214e73689b69fe
:102a1c00984782b200233169814206d94ff6ff7183
:102a2c0052184ff0000141eb03031949096a56187b
:102a3c0043f10007b94508bfb04524d20a44144bf2
:102a4c00da61134bdb699bb213b9114b0122da61ca
:102a5c000f4bd8695b685b6980b29847bde8f88317
:102a6c0094680b4b5b69002514eb030845f10009d6
:102a7c00cbe7074b5b6947f6ff74002514eb0308a3
:102a8c0045f10009c1e7024bc3f81c80d9e700bf30
:042a9c00b80d402011
:020000040000fa
:020000040040ba
:102aa0002de9f04106460d4690461f4601f0b0fe66
:102ab000002841d0224b93f90030022b06d04ff072
:102ac000ff3401f0e5fd2046bde8f081002d30d057
:102ad000b5422ed31b4b1b7853b11b4b01241a78e4
:102ae00042b101342033052cf9d14ff0ff34e8e72f
:102af0000024144b01221a7000225a701a755a755c
:102b00009df818209a705d60c3f80c801f61ad1ba2
:102b10009d600e4a1288a4b244ea0244dc61531c50
:102b20009bb24ff6ff72934208bf0123074a1380fe
:102b3000c7e74ff0ff34c4e74ff0ff34c3e700bfef
:102b4000b80d4020dc094020fc0940201c0f40202b
:020000040000fa
:020000040040ba
:102b50002de9f041d2e900230c4686b007465fea32
:102b6000d37820684968a5680590e66841d052424c
:102b700063eb4303002908db20f002000590b8f165
:102b8000000f02d1059948072ad5691e05a80290b1
:102b90000a20cde90010204600f076fbb8f1000fc6
:102ba00002d1059b59071fd5b8f1000f00f1ff3086
:102bb00014bf2d232b2333542269059b0093013a24
:102bc0002b46121a3118384600f066fa7b68db058e
:102bd00003d563689842b8bf184606b0bde8f081d7
:102be0000807d2d42946d1e71a07e5d501382023b2
:082bf000e1e70029c0dac5e7a6
:020000040000fa
:020000040040ba
:102bf800002943d038b50d4600283cd1214c01238b
:102c080084f834300b686360db689847e0601e4bdb
:102c1800b3fbf0f34ff4617090fbf3f002302062e5
:102c280095f904302372002121614ff6ff73a361e7
:102c380047f6ff73e3616162a162216384f82c1097
:102c480063681b681148984763681b690bb1208b40
:102c580098470c4ce06963685b6980b29847636881
:102c68005b689847a0220021094802f0b1fa0223c4
:102c78002370204638bd4ff0ff30fbe74ff0ff30a0
:102c8800704700bfb80d402000a3e11105264000a1
:042c9800dc094020f3
:020000040000fa
:020000040040ba
:102c9c0008b57f281dd9030203f4fe0343f48073a7
:102cac00214a5360c0b2d060204b00225a619a6115
:102cbc00002935d1db68012b0fd01c4b03221a776e
:102ccc005a68012159611278174b5a6305225a62ce
:102cdc0008bd0004144b5860e6e7144b1b6963b93c
:102cec00124b04221a77596801225a6109780e4b4b
:102cfc005963022119605a62eae772b60b4b5968a4
:102d0c005a69501c58618a5c074b5a631a46136afd
:102d1c0013f0050ffbd1044a136a13f0040ffbd018
:102d2c0001f056fdd4e700bf00800140200e40208a
:020000040000fa
:020000040040ba
:102d3c00882930b534d012dc81293fd003dc8029be
:102d4c003cd0002030bd82290ed08429f9d11c68da
:102d5c0054f8041b1c60f2b10ab2d3171de0a02971
:102d6c0027d00cdc9029ecd11968073121f0070130
:102d7c00f1e802451960c0e900450120e2e7c029ed
:102d8c0001d0f029ddd11a68111d19601368036098
:102d9c0000234360f1e78ab20023c0e90023ece78b
:102dac001c6854f8041b1c600ab14ab2d5e7cab2bd
:102dbc00f2e71a68111d19601268cee719680c1d2c
:102dcc001c600ab10a68c8e70b68c0e90032d4e796
:020000040000fa
:020000040040ba
:102ddc0030b32de9f0418646204b1a6bd0f80880b1
:102dec00c2b193684046002198451bd300240025ae
:102dfc009368e41845f100059369dbb1d3f808c07a
:102e0c0014eb0c0645f10007b94208bfb04211d3d0
:102e1c001a46ede7c0f80880104b186301201ae041
:102e2c00002070470d4bc3f830e0cef8182000247a
:102e3c00012004e0cef81830c2f818e00020a8eb0e
:102e4c000404cef80840def8183023b1def8081080
:102e5c009a68521a9a60bde8f08100bfb80d402004
:020000040000fa
:020000040040ba
:102e6c0010b5224c204602f0a1f9204601f0beff1d
:102e7c000421204601f0b6f80721204602f033f970
:102e8c000121204602f000f94ff48051204601f058
:102e9c0005fe4ff4c871204601f052f840f29b1128
:102eac00204601f069fe0321204602f0b7f92046c6
:102ebc0002f064f9204602f069f9204602f06ef93e
:102ecc001f21204602f04af91f21204602f04ef93c
:102edc0001221146204601f05df8022211462046df
:102eec0001f058f8204600f0c9fc10bd4007402006
:020000040000fa
:020000040040ba
:102efc002de9ff41836946690093f61acde901611a
:102f0c0004461746039216444ff002086d4642469b
:102f1c002946206801f004feb04209d1d4e90232fe
:102f2c00c4e905331a44a262384604b0bde8f08106
:102f3c0000280dda6268002342f01002b8f1020f8b
:102f4c00a362c4e90533626015d06b68ff1aebe726
:102f5c006b68984288bf0835a6eb000688bfc01a7c
:102f6c002b6803442b606b68a3eb000088bf08f14f
:0a2f7c00ff386860cbe71f46d6e778
:020000040000fa
:020000040040ba
:022f8600fee764
:020000040000fa
:020000040040ba
:102f880030b585b00446012200920df10f031d49aa
:102f9800007801f043fd054602f06ef80028fbd1e9
:102fa8007db19df80f30a3710023adf80c30bdf84a
:102fb8000c309bb240f2ed2293420ed91ce0ff2068
:102fc8001ce0fb23a3710023adf80c30bdf80c30d6
:102fd8009bb240f2ed22934212d840f2ed22bdf8a6
:102fe8000c3001339bb2adf80c30bdf80c309bb2fd
:102ff8009342f4d9002de2d09df80f0005b030bd02
:08300800ff20fbe7320f40201e
:020000040000fa
:020000040040ba
:103010001e4b1f4a9342f0b438bf002103d203f87d
:10302000011b9342fbd11b4ad2e9000150ea010384
:103030004ff0000610d09468034602f10c076cb9fb
:1030400021b1014403f8016b9942fbd13a46d2e920
:10305000000150ea0103eed1f0bc704759b101f113
:103060000c030c38801a1a443b461c1813f8015bf9
:1030700025709342f9d111f0030318bf012303eb2c
:10308000910107eb81073a46e1e700bf00004020cd
:08309000000040209001400007
:020000040000fa
:020000040040ba
:103098002de9ff471d460c9b13f00108074689469a
:1030a800144624d1aa4222da2e1b102e32464ff0a3
:1030b800200128bf10226846b24602f089f80f2e78
:1030c8001edc4fea1a136ff00f0202fb03a26946d7
:1030d800384601f0bbfab8f1000f04d12246494640
:1030e800384601f0b3fa284604b0bde8f087224616
:1030f8004946384601f0aafaac42d5db2546f2e744
:0e31080010226946384601f0a1fa103ed7e7c2
:020000040000fa
:020000040040ba
:02311600fee7d2
:020000040000fa
:020000040040ba
:1031180008b502f015f8184b1b680021186802f072
:103128004ff8164b1b680021186802f049f800f0a8
:10313800dbfafff7f5f94ff40043114a5360b03a50
:10314800536001f015ff01f083ff01f0c9fd01f0a4
:1031580023fa01f087ff01f093fe01f03ff900f038
:1031680095fd08490020fff743fd074b186001f063
:1031780081fc00f077fc08bd840b4020640e4020e1
:0c31880000190e402c534000f80e4020af
:020000040000fa
:020000040040ba
:10319400842910b523d00cdc812903d0822913d0d3
:1031a40080290bd119680c1d1c600b6803601a6020
:1031b40013e0902921d003dc882917d0002010bd0a
:1031c400a029efd0c029ece719680c1d1c600b681e
:1031d4000360d1171046c3e900010120efe7196825
:1031e4000c1d1c600b6803601a80f6e719680c1d3f
:1031f4001c600b6803601a70efe719680c1d1c60f3
:0c32040009680160d317c1e90023e6e768
:020000040000fa
:020000040040ba
:103210001a4b93f90030022b27d1184bdb782bb1d6
:10322000164a927822bb10f0080f24d1144a527823
:10323000012a02d04ff0ff307047124a12782ab1ab
:103240000f4b01225a704ff0ff30704710b40d48f9
:103250000122027000244460817013440749cb703e
:10326000074b5a705df8044b70474ff0ff307047c2
:103270004ff0ff3070474ff0ff307047840e402012
:08328000140f4020a40e4020b1
:020000040000fa
:020000040040ba
:103288002de9f84f04460c9f6668d4f80cb0246901
:1032980010463a68013c002502f0020a0b9a0bf826
:1032a8000450002e1946b8bf0126012390464fea64
:1032b800e279002c03dcd3b12046bde8f88f50ea50
:1032c800010209d1721b002a06dc0a9a521b002a45
:1032d800f1ddbaf1000feed042464b4601f058fb43
:1032e800013c134630320bf804200135e1e73b6816
:0832f80023f010033b60dfe747
:020000040000fa
:020000040040ba
:10330000f8b5846a05460f46164654b1ab6a6a6939
:103310009b1ab3420bd2324639462846fff7eefde0
:10332000f8bd01f041fe0028f0d02046f8e7002e5d
:10333000f1d095f93430002b1bdbdbb23446621e32
:10334000b95c994212d1224639462846fff7d6fd8c
:10335000a042e5d32744341b22463946686901f070
:1033600047fe6b691c446c613046d9e71446002a5d
:06337000e5d13446f0e750
:020000040000fa
:020000040040ba
:02337600fee770
:020000040000fa
:020000040040ba
:10337800f8b5184c2046fff771fa05462046fdf7c8
:1033880021fb154b1c6804f11f03312b03d9c4f131
:103398003206f6b200e01f262644b44218d22b4665
:1033a8006200971e0d49394404380d4a3a44a5eb8a
:1033b800840505eb860553f8044b21f8024f50f8b5
:1033c800044f22f8024fab42f5d1034b1e60f8bd03
:1033d8002646fae740074020000f4020600c4020b6
:0433e800c40c4020b1
:020000040000fa
:020000040040ba
:1033ec00f0b50c4649682368a768e56887b00029e2
:1033fc000593a4bf23f00203059305ab02930823a6
:10340c00cde900730646d2e900232046fff736ffcc
:10341c00059bd90642bf00f1ff3030232b54059b8e
:10342c001a0742bf00f1ff3020232b542269059b61
:10343c000093013a3b46121a29183046fff726fe34
:10344c007368db0503d563689842b8bf184607b0ac
:02345c00f0bdc1
:020000040000fa
:020000040040ba
:02345e00fee787
:020000040000fa
:020000040040ba
:103460002de9f843884621b3164b1f68c72f27d88c
:10347000c7f1c80c84444e1ef6b20136064402461b
:10348000114ddff848e019464ff000092b6812f89b
:10349000014b0ef80340d419241a0c60c62b94bfbc
:1034a00001334b462b60b24203d09445eed100204d
:1034b00004e04146012001f0bdfc0120bde8f88395
:1034c0000020fbe77c0b4020ec0e40204c08402005
:020000040000fa
:020000040040ba
:1034d00010b58eb0aa238df8043000238df8053086
:1034e0001a238df8063011238df8073001238df84b
:1034f000083002228df809208df80a3005238df856
:103500000b3014238df80c3009238df80d300b4c43
:10351000621e0df10d001234512312f8011f00f844
:10352000011f0b44dbb2a242f7d15b428df8213080
:103530001e2101a8fff7faf90eb010bd445040005b
:020000040000fa
:020000040040ba
:1035400000282dd030b40446174b1b7d53bb164bbf
:103550001860596000229a6001221a75134b124ab2
:1035600004e09068451c9560205cd861586910f0b3
:10357000020f0fd0906888420cd2586810f4003fb8
:10358000efd09068451c956034f81000c0f3080037
:10359000d861ebe7054b02229a60012030bc7047ee
:1035a000002070470020f9e7f00d40200040024065
:020000040000fa
:020000040040ba
:1035b000f0b587b0044616461d468df80f1001225f
:1035c00000920df117030df10f0101f02bfa0746e0
:1035d00001f056fd0028fbd10023adf81430bdf8f2
:1035e00014309bb240f2ed2293420ad8bdf8143059
:1035f00001339bb2adf81430bdf814309bb2934246
:10360000f4d957b19df8172032402a439df80f1086
:0e361000204600f0adfd07b0f0bd0022f4e74b
:020000040000fa
:020000040040ba
:10361e00f0b5adf5237d0e46b1f5207f28bf4ff4f2
:10362e002076aa238df8003000238df80130f7b2f2
:10363e00bb1c8df802303f238df803308df804202b
:10364e0002f141033b44dbb261b1013801ad00220e
:10365e0010f8014f05f8014f2344dbb2013292b24c
:10366e00b242f5d36e445b427371b91dc9b268465e
:0a367e00fff755f90df5237df0bdaf
:020000040000fa
:020000040040ba
:1036880008b5134b1b78c3b112490a88531c9bb267
:103698000b801149885cb3f5967f02d30d4b00224d
:1036a8001a800e4b1b880b4a12889b1a18bf0123dd
:1036b800074a137001f038fc08bd094b1b78022b30
:1036c800fad1074b03221a70064b0a221a70f3e745
:1036d800260f40201a0f402014064020180f4020c3
:0836e800230f4020240f4020b5
:020000040000fa
:020000040040ba
:1036f000164b174a9a629a6e12f0020ffbd0134ac9
:10370000136b23f07003136313469a6e12f0080fc5
:10371000fbd00e4a136b23f4407343f4807313639e
:1037200013469a6e12f0080ffbd0084a136b23f071
:10373000030343f00203136313469a6e12f0080f5b
:10374000fbd0024b034a1a61704700bf00060e40cf
:08375000013f1820007c8b00f2
:020000040000fa
:020000040040ba
:1037580038b5174bdd681c681a6822f440321a60c5
:1037680014f4003f0fd015f0020f07d0114b1b685f
:1037780023b1104a51684ff4003098470c4a136837
:1037880043f40033136014f4803f0fd015f0010f99
:1037980007d0084b1b6823b1064a51684ff48030a4
:1037a8009847034a136843f48033136038bd00bf59
:0837b80030180e40c80e40203d
:020000040000fa
:020000040040ba
:1037c00010b5144b1b7813b1012b11d010bd002183
:1037d000114801f07bfd0021104801f07dfd0d4cea
:1037e000012104f13c0000f01dfe01232370ede7f0
:1037f0000b4b1b7813f0010fe8d001f073fd00288c
:10380000e4d1fff741ff064a1378013bdbb21370a6
:10381000dce700bf780d402039514000994240005c
:04382000280f40200d
:020000040000fa
:020000040040ba
:10382400f0b4c0f34715154c635d2c446678b3427d
:103834001fd21d4603eb4304114f37f92440844241
:103844000ed00133dbb2b34215d21d4603eb430362
:103854000b4c34f92330834202d00020f0bc704773
:10386400074b6800441903eb84046160a2600120e3
:10387400f4e70020f2e70020f0e700bfe00e40206c
:04388400b00e402022
:020000040000fa
:020000040040ba
:1038880000b583b0164b1b788df8043000238df8f3
:1038980005308df806308df8073004220deb020153
:1038a800007801f0a5f801f0e7fb0028fbd1002320
:1038b800adf80230bdf802309bb240f2ed229342df
:1038c8000ad8bdf8023001339bb2adf80230bdf81a
:1038d80002309bb29342f4d903b05df804fb00bff9
:0438e8002f0f40203e
:020000040000fa
:020000040040ba
:1038ec0037b50d46044610b9002003b030bd43680f
:1038fc009b0607d5d0e905239a4219d80023c4e9c1
:10390c000533a362d4e90f239a4206d2d21a0123bb
:10391c0000932068d31701f023fd0023c4e90f3373
:10392c00002de1d0206803b0bde8304001f008bda7
:10393c000022c36a114698476369002bded14ff011
:04394c00ff30d2e78f
:020000040000fa
:020000040040ba
:1039500008b500f0e5fc134b1b78012b0cd05ab2d4
:1039600012b1022b16d008bd01f058fb0328fad182
:103970000c4b01221a70f6e70b4b5b78002bf2d14f
:1039800017220a49084b586801f052fb054b0222e6
:103990001a70e8e7044b5b78002be4d0014b01225e
:1039a0001a70e0e7940e4020bc0e4020904f40007b
:020000040000fa
:020000040040ba
:1039b0007fb5c36800911546002b18bf013a0192ec
:1039c00082680446cde902230e4602226946006859
:1039d00001f080f8002808dc00f0180383f00802ea
:1039e00063681343636005460fe0019a8242fad28e
:1039f000a368e363801ae268184420642ab15a1c61
:103a0000e2632e441b7806f8013c284604b070bde2
:020000040000fa
:020000040040ba
:103a100000b585b0aa238df8003000238df8013061
:103a20000b228df8022013228df8032006228df838
:103a3000042040228df805208df806308df80730df
:103a40008df808308df809308df80a308df80b307c
:103a50008df80c308df80d309c238df80e300f2131
:0c3a60006846fef763ff05b05df804fb4c
:020000040000fa
:020000040040ba
:103a6c001349ca6822f4e0621204120c114b13437e
:103a7c00cb60bff35f8f62b60f4be02283f803235a
:103a8c000821196083f80a234ff48061196083f8c8
:103a9c000d234ff40051196083f813234ff40021c8
:103aac00196083f817234ff400021a60704700bfa7
:0c3abc0000ed00e00000fa0500e100e071
:020000040000fa
:020000040040ba
:103ac80010b584b0012200920df10f03124957205e
:103ad80000f0a4ff044601f0cffa0028fbd1002330
:103ae800adf80c30bdf80c309bb240f2ed22934299
:103af8000ad8bdf80c3001339bb2adf80c30bdf8d4
:103b08000c309bb29342f4d91cb19df80f0004b05d
:0c3b180010bdff20fbe700bf2d0f402078
:020000040000fa
:020000040040ba
:103b240010b584b0012200920df10f031249572001
:103b340000f076ff044601f0a1fa0028fbd100232f
:103b4400adf80c30bdf80c309bb240f2ed2293423c
:103b54000ad8bdf80c3001339bb2adf80c30bdf877
:103b64000c309bb29342f4d91cb19df80f0004b001
:0c3b740010bdff20fbe700bf300f402019
:020000040000fa
:020000040040ba
:103b800010b584b00078012200920df10f031249a4
:103b900000f048ff044601f073fa0028fbd100232f
:103ba000adf80c30bdf80c309bb240f2ed229342e0
:103bb0000ad8bdf80c3001339bb2adf80c30bdf81b
:103bc0000c309bb29342f4d91cb19df80f0004b0a5
:0c3bd00010bdff20fbe700bf310f4020bc
:020000040000fa
:020000040040ba
:103bdc000e4a38b5002313600d4a0e4c13600e4a82
:103bec000e4d13600e4a13600e4a13600e4a536258
:103bfc0013610123936001f0f9fa00f0fcffac4271
:103c0c0000d338bd54f8043b9847f8e7080f402020
:103c1c00340d402074014000300d402078014000ec
:0c3c2c00280d40202c0d4020380d4020b9
:020000040000fa
:020000040040ba
:103c3800202122232424252526262727282828282a
:103c4800292929292a2a2a2a2b2b2b2b2c2c2c2cc4
:103c58002c2c2c2c2d2d2d2d2d2d2d2d2e2e2e2e8c
:103c68002e2e2e2e2f2f2f2f2f2f2f2f0001170202
:103c78001d1813031e1b190b1408040d1f161c1204
:0c3c88001a0a070c1511090610050f0e92
:020000040000fa
:020000040040ba
:103c940070b5104d01266e7000242c70ec702c72df
:103ca400ac7200f0fbff2c7300f014fe01f0cef8b0
:103cb400094b1c60094b1c60094b1c606e72094b5c
:103cc4001b7813b9074b5e701e70024b02221a70e8
:103cd40070bd00bf840e4020e80e4020ec0e402052
:083ce4007c0b4020140f40206e
:020000040000fa
:020000040040ba
:103cec0038b5c46c856c114b03445b0a1049ca5c33
:103cfc000b445b789a4218d202eb42030d4931f91e
:103d0c00230000f01f0101238b402c4023420cd0d8
:103d1c0002eb4203074901eb83035c682cb102eb15
:103d2c00420201eb82029168a04738bd00f2f1bf5c
:083d3c00e00e4020b00e402013
:020000040000fa
:020000040040ba
:103d440038b5044600f062fd10b3204600f044fc90
:103d54000546b0b14378b3b983680bb9436883604f
:103d64000c4b93f82c3043b9284600f079fb00241f
:103d74002c756c7501236b7006e02846fff72cf850
:103d8400f5e7012400e0002400f080fc204638bd63
:083d94000124fbe7b80d4020fb
:020000040000fa
:020000040040ba
:103d9c0070b5d0e90245a54217d10122a1f120034b
:103dac00c1f1200622fa06f602fa03f333438a40e5
:103dbc00db43d6431ab10b490a6832400a605a1cdd
:103dcc001fbf084a51680b4053604368ac6043f016
:103ddc00010223f00103e5604260c25842f0010287
:083dec00c25070bd0804402024
:020000040000fa
:020000040040ba
:103df4002de9ff41134dd1f80080af88adf80c7068
:103e040006462868029002aca8798df80e00002ab4
:103e140018bf1446d1e901571a461bb9204601f0d0
:103e2400e1f90246002d02dbaa4228bf2a46cdf85a
:103e340000803b4621463046fff72cf904b0bde82c
:083e4400f08100bf545340005f
:020000040000fa
:020000040040ba
:103e4c00f0b50c4649682368a668e76887b0002976
:103e5c000593a4bf23f00203059305ab02930a2339
:103e6c00cde900630546d2e900232046fff706faa8
:103e7c002269059b0093013a3346121a39182846d9
:103e8c00fff704f96b68db0503d563689842b8bf8c
:063e9c00184607b0f0bd5e
:020000040000fa
:020000040040ba
:023ea200fee739
:020000040000fa
:020000040040ba
:103ea4000146134b1a6b0ab1824203d11346002216
:103eb40005e01a469369002b18bf9942f9d1abb1ba
:103ec40010b48b691bb18c689868204498603ab12f
:103ed4008b699361002000238b615df8044b70476c
:103ee400034b1a6b92691a630120f4e700207047b0
:043ef400b80d4020a5
:020000040000fa
:020000040040ba
:103ef80070b582b0002b08bf00281bd00646cab197
:103f08001d4610460c460e4bd9684ff47a720023b2
:103f1800a1fb000100f03cfd009523463246014616
:103f28000020fef7b9fd0446b0f1ff3f04d0fff7cb
:103f380005ff01e04ff0ff34204602b070bd00bf1e
:043f4800b80d402050
:020000040000fa
:020000040040ba
:103f4c0008b5b1f5487f1bd00ed8c8291ad0b1f5e9
:103f5c00c87f19d064290cbf04230023e3220a2153
:103f6c000078fff71ffb08bdb1f5c86f0ed0b1f597
:103f7c00486f0dd0b1f57a7f0cbf14230023ede709
:103f8c001023ebe70823e9e70c23e7e71823e5e721
:043f9c001c23e3e718
:020000040000fa
:020000040040ba
:103fa00008b50139032909d8dfe801f0020912191f
:103fb0001346f82211210078fff7fafa08bd130121
:103fc00003f0f0038f2211210078fff7f1faf5e7f3
:103fd0001346f82212210078fff7eafaeee7130100
:103fe00003f0f0038f2212210078fff7e1fae5e7f2
:020000040000fa
:020000040040ba
:103ff00008b502391e2920d8dfe801f0101f121f72
:104000001f1f191f1f1f1f1f1f1f1b1f1f1f1f1fca
:104010001f1f1f1f1f1f1f1f1f1f1d00202300e02a
:1040200040231f2208210078fff7c2fa08bd602351
:0e403000f7e78023f5e7a023f3e70023f1e78d
:020000040000fa
:020000040040ba
:10403e0013b5836a8df80710044673b16369a26adb
:10404e00934212d3e36a01220df1070120469847ed
:10405e00012806d19df8070005e000f09eff00281c
:10406e00ecd04ff0ff3002b010bd9df8070094f970
:0e407e0034209042e6d05a1c62611870f3e7bd
:020000040000fa
:020000040040ba
:10408c006576656e743a2030782530327820307839
:10409c0025303278203078253032780d0a00000037
:1040ac006576656e743a2030782530327820307819
:1040bc00253032780d0a0000756e65787065637472
:0c40cc00796564206576656e740d000057
:020000040000fa
:020000040040ba
:1040d80008b50e4b1b78bbb10d490a88531c9bb21f
:1040e8000b800c49885cb3f5967f02d3084b0022fd
:1040f8001a80094b1b88064a12889b1a18bf01238d
:10410800024a137000f010ff08bd00bf260f4020c0
:0c4118001a0f402014064020180f402011
:020000040000fa
:020000040040ba
:10412400f0b130b40446e9b101200f4a651e023ce7
:1041340005e02b5cd361431c81420ed918465369b8
:1041440013f0020ffbd0536813f4003ff1d034f89e
:104154001030c3f30803d361ede7012030bc70478e
:0c416400002070470120f9e700800240b5
:020000040000fa
:020000040040ba
:1041700000b583b08df804108df80520022201a946
:1041800000f03afc00f07cff0028fbd10023adf8e2
:104190000230bdf802309bb240f2ed2293420ad8c1
:1041a000bdf8023001339bb2adf80230bdf80230e9
:0c41b0009bb29342f4d903b05df804fb0d
:020000040000fa
:020000040040ba
:1041bc00022a70b5044616461d461ad043689b0663
:1041cc0017d441b9002d08bf4ff4806505f10800e4
:1041dc00fdf7f2f901466368012e43f0200363609a
:1041ec00c4e9021514bfff230a2384f83430024bb0
:0c41fc00e362002070bd00bf01334000f2
:020000040000fa
:020000040040ba
:1042080000b583b0aa238df8003000228df8012074
:1042180004238df8023035238df80330094b9b7a3f
:104228008df804308df805008df8062039331844d0
:1042380040428df8070008216846fef773fb03b07b
:084248005df804fb840e402028
:020000040000fa
:020000040040ba
:1042500010b50278202a034600f10100f9d0a2f13e
:1042600009010429f5d92b2a07d02d2a11d10121c2
:104270000133013b00200a2403e00021f8e76043fa
:10428000801a13f8012f303a092af8d901b94042af
:0642900010bd0021ede766
:020000040000fa
:020000040040ba
:02429600fee741
:020000040000fa
:020000040040ba
:1042980010b50e4c94f83a305a1c84f83a2094f829
:1042a8003c2023441a72012104f13c0000f0b6f8c6
:1042b80094f83a30312b02d9002284f83a20044a83
:1042c80013780133dbb2137010bd00bf780d4020a6
:0442d800270f40204c
:020000040000fa
:020000040040ba
:1042dc0038b5044600f0f5fe002c16db63090c49da
:1042ec0051f8235004f01f04e54005f001050122ac
:1042fc0002fa04f4203341f82340bff34f8fbff38d
:10430c006f8f00f0e7fe284638bd0025f9e700bfa7
:04431c0000e100e0dc
:020000040000fa
:020000040040ba
:1043200010b50f4b1b7813b1012b10d010bd00f04e
:1043300091ff0228fad110210120fef769ff084bf6
:104340005860b0f1ff3ff1d001221a70eee7044c43
:104350000022a168606800f0b1fe02232370e5e747
:04436000bc0e40202f
:020000040000fa
:020000040040ba
:1043640010b5054c237833b9044b13b10448aff3ab
:1043740000800123237010bd680e4020000000005f
:104384000000000008b5034b1bb103490348aff319
:10439400008008bd000000006c0e402000000000fa
:020000040000fa
:020000040040ba
:1043a40008b50c4b1b7813b1013b0a4a13700a4b36
:1043b4001b7843b1013bdbb2074a13701bb9074baf
:1043c4001b78012b00d008bd044b02221a70fff7a2
:1043d40081fef8e7240f4020250f4020230f4020c2
:020000040000fa
:020000040040ba
:1043e4000d4b4ff486721a6050221a604ff40c621f
:1043f4005a6051221a62094b00229a61da611a62e8
:1044040083f82c205a621a605a609a601a75da602e
:1044140083f82d20704700bf00400240f00d40207b
:020000040000fa
:020000040040ba
:10442400c0b138b505460c4a92f82c200ab10020d8
:1044340038bd0c4600f00afb074b002283f82d2000
:104444009d61dc611a62012083f82c00034be12298
:104454009a60ede700207047f00d402000400240d4
:020000040000fa
:020000040040ba
:1044640038b505460d4c63689b699847606160697f
:1044740000f090fc044600f045fa204600f01efdd2
:104484002846fef7a9fc00b938bd00f045ff0446f4
:10449400fef7aafa204600f043fff5e7b80d4020e6
:020000040000fa
:020000040040ba
:1044a4000c4a036810b5546a0b4a591e121b8a42ff
:1044b4000ad22bb1094b0c221a604ff0ff3010bd09
:1044c400102202600020fae7173323f00f03036081
:1044d400f8e700bf380d4020efffff7f0c0f4020ae
:020000040000fa
:020000040040ba
:1044e40070b5b9b115460ab1022801d9284670bd84
:1044f4000a4b2bb108461146aff30080284670bd25
:104504000c468e1814f8010b00f0cafcb442f9d121
:10451400284670bd0d46284670bd00bf000000004f
:020000040000fa
:020000040040ba
:1045240000b583b0aa238df8003000238df8013044
:1045340002238df802301c238df80330002814bfa9
:10454400812300238df80430c3f1e2038df8053094
:0e45540006216846fef7e8f903b05df804fba7
:020000040000fa
:020000040040ba
:1045620010b44c68a40602460b4603d45df8044b13
:1045720000f0c5b891f93410c0b2814203d0596934
:104582009c6aa14205d3114618465df8044bfff719
:0e45920055bd4c1c5c610a705df8044b70470f
:020000040000fa
:020000040040ba
:1045a0000c4b80221a6028221a60196901f07c5194
:1045b0004bf2c0120a431a614ff080721a604ff436
:1045c00040725a6204221a60034b00225a771a770b
:0c45d000704700bf00800140200e40201a
:020000040000fa
:020000040040ba
:1045dc00431e13f1030f0fd883b2042b0ed80a4ad3
:1045ec0002eb4312d26982420ad15a0106498a5c13
:1045fc0042b101eb43107047002070470020704718
:0c460c000020704700207047dc094020af
:020000040000fa
:020000040040ba
:1046180010b5044600f0f8f8b0b12046fff7daff0d
:10462800044678b1437843b900202075607520703e
:10463800044600f029f8204610bdfff72ffc0023a0
:0c4648006370f1e70124f4e70124f4e7bb
:020000040000fa
:020000040040ba
:1046540038b5436813f4807f0446154610d00369c7
:1046640040699a4228bf1d462a4600f0bffc626991
:104674005319636123695b1b23610023535538bdc0
:0a468400db06fcd400f0a6fcf9e709
:020000040000fa
:020000040040ba
:02468e00fee745
:020000040000fa
:020000040040ba
:104690000b4b93f90830002b08db590903f01f037b
:1046a000012202fa03f3074a42f82130044b93f83f
:1046b0002c301bb9024b012283f83420704700bf15
:0846c000b80d402000e100e00c
:020000040000fa
:020000040040ba
:1046c80000b58db000f048fc1d3000f0f7fa01236a
:1046d80001930223029303230393042304930523e2
:1046e800059341f6852306930023079301a8fdf758
:0846f800e7fb0db05df804fbc7
:020000040000fa
:020000040040ba
:1047000007b54a68c0b2d2050b468df8070006d53a
:104710004a69511c5961107003b05df804fb012215
:104720000df10701184600f057fc10b19df8070085
:08473000f2e74ff0ff30efe764
:020000040000fa
:020000040040ba
:1047380000090138202813d9b0f5007f05d2094bac
:1047480003ebd00010f8040c7047b0f5e05f06d812
:10475800044b03ebd01010f8040c103070473f20c6
:08476800704700bf383c40001f
:020000040000fa
:020000040040ba
:1047700030b50c4a002312f8134024b902eb43036e
:104780005b78184630bd01680d78a54209bf02eb81
:10479000430301335b78013114bfdbb201600a2ba4
:0847a000e9d9eee7144f4000d7
:020000040000fa
:020000040040ba
:1047a8000a4b93f83b104a1cd2b283f83b200b44c7
:1047b800187a312a03d9054b002283f83b20044a92
:1047c8001378013bdbb21370704700bf780d4020af
:0447d800270f402047
:020000040000fa
:020000040040ba
:1047dc000a4a022313770a494b6843f480534b600f
:1047ec001369012b07d0064b01221a6062b6044be9
:1047fc0003225a62704703220a60f7e7200e40201a
:04480c0000800140e7
:020000040000fa
:020000040040ba
:1048100008b50b4b93f82c3083b9094b93f834301f
:10482000012b01d000200ae0054b002283f8342040
:1048300093f90800fff752fd012000e0012008bdb8
:04484000b80d40204f
:020000040000fa
:020000040040ba
:10484400022800d07047022902d9032907d07047f3
:10485400064b20221a63064b01225a707047034b01
:1048640020225a63024b00225a70ebe7000e0e40de
:04487400bc0e402016
:020000040000fa
:020000040040ba
:104878000023074a1360074a1360074a1360074a70
:10488800531ec732002103f8011f9342fbd1704722
:10489800e80e4020ec0e40207c0b40204c084020c5
:020000040000fa
:020000040040ba
:1048a800424d37312073746174653a202530326483
:1048b8000d0a000063616e2774206f70656e2053c7
:1048c80059535f54494d45206472697665720000fa
:020000040000fa
:020000040040ba
:1048d80010b50023074a1370074a1370074b1b785b
:1048e8002bb1064cfff75cff2378002bfad1fff7ba
:1048f800bfff10bd220f4020210f4020270f40206e
:020000040000fa
:020000040040ba
:104908000a4b1b6b73b168b1002105e09a68801ae5
:1049180099609b6933b128b19a688242f6d39a6844
:10492800101a9860014b5a691a617047b80d4020f7
:020000040000fa
:020000040040ba
:1049380008b5084800f0f8f9074a936b83f020039c
:10494800936300f009fb1d3000f0b8f9034b032214
:104958001a7008bd14134000000e0e402c0f4020a2
:020000040000fa
:020000040040ba
:1049680070b505462c68e30701d500200fe0204606
:10497800fff7defe064600f02bfa2868a042f1d1c8
:1049880020f00100281a3146fff704fa012070bd13
:020000040000fa
:020000040040ba
:1049980053b94ab9002908bf00281cbf4ff0ff319e
:1049a8004ff0ff3000f0dcbcadf1080c6de904ce2f
:1049b800fcf744fbddf804e0dde9022304b07047ae
:020000040000fa
:020000040040ba
:1049c800426822f00102531a102b30b40dd9441852
:1049d80041f0010543f00103455063608350456091
:0e49e80004f1080030bcfdf7adbc30bc7047d8
:020000040000fa
:020000040040ba
:0249f600704708
:020000040000fa
:020000040040ba
:1049f800094b1b7f5bb20bb10020704710b50c460a
:104a0800054b18800021996019615c60da6059775c
:0c4a1800fef740f9012010bd200e4020e8
:020000040000fa
:020000040040ba
:104a240010b5094c247f64b20cb1002010bd064cb3
:104a34002080a360029b23616160e26000216177b2
:0c4a4400fef72af90120f1e7200e4020c7
:020000040000fa
:020000040040ba
:104a5000094b5b6913f0e00f0dd0074b4ff48072e8
:104a60001a605b6913f0010f05d0034b9a695a690c
:0c4a700012f0010ffad170470040024024
:020000040000fa
:020000040040ba
:104a7c00074a002313701381137353815373d3812b
:104a8c00044a137001235370034b9360704700bfab
:0c4a9c00940e4020bc0e40204548400015
:020000040000fa
:020000040040ba
:104aa80008b5b1f5005f0dd0b1f5804f0cd0b1f568
:104ab800805f0cbf202300239f220a210078fef785
:0c4ac80073fd08bd4023f7e76023f5e70d
:020000040000fa
:020000040040ba
:104ad4002de9f0410024804617460d462646be4285
:104ae40005f1080502db2046bde8f08155e9021214
:0c4af400404600f025fc01360444f0e7c9
:020000040000fa
:020000040040ba
:104b000070b505466c68e30701d500200de020462e
:104b1000fff712fe064600f05ff96b68a342f1d181
:0c4b200028463146fff73af9012070bd2d
:020000040000fa
:020000040040ba
:104b2c002de9f0410024804617460d462646be422c
:104b3c0005f1080502db2046bde8f08155e90212bb
:0c4b4c004046fff7c9fc01360444f0e7c6
:020000040000fa
:020000040040ba
:104b5800074a136843b10749184488428cbf4ff08d
:104b6800ff33106018467047034b1360f3e700bf2c
:0c4b7800100f402038114020380f402062
:020000040000fa
:020000040040ba
:104b840008b5d7290dd040f29b1399420bd0762952
:104b940014bf00230123fc220a210078fef706fd3e
:0a4ba40008bd0223f7e70323f5e73d
:020000040000fa
:020000040040ba
:104bae0070b5002902fb01f614460d4618bf1446d7
:104bbe0001463246184608bf002400f006fa864227
:0a4bce0018bfb0fbf5f4204670bddf
:020000040000fa
:020000040040ba
:104bd800802910db812901dd83290cd11368073373
:104be80023f0070303f108011160d3e90023c0e9aa
:0a4bf80000230120704700207047e1
:020000040000fa
:020000040040ba
:024c02007047f9
:020000040000fa
:020000040040ba
:104c0400074b1b8813b1013b054a1380054b1b78e6
:104c14002bb113f0010f02d1013b024a137070470c
:084c2400e60e4020280f40209d
:020000040000fa
:020000040040ba
:104c2c0010b5084c2368196800f08ef8002807dbd3
:104c3c0023680a20196800f077fbc00f404210bdb2
:084c4c000120fbe7640e40208b
:020000040000fa
:020000040040ba
:104c540090f948305a1e1343426880f8483012f0e5
:104c640004031bbf42f010024260c0e90f334ff04f
:084c7400ff3008bf184670472d
:020000040000fa
:020000040040ba
:104c7c00064b1b78032b00d07047054b1b78002b81
:104c8c00fad1024b00221a70f6e700bf230f402026
:044c9c00240f402081
:020000040000fa
:020000040040ba
:104ca000054a0023137082f83a3082f83b30034af9
:104cb0001370034a13707047780d4020280f40206e
:044cc000270f40205a
:020000040000fa
:020000040040ba
:104cc400074b19681a6822f480321a60586011f48c
:104cd400803f04d01a461b6843f480331360704746
:044ce40030180e4036
:020000040000fa
:020000040040ba
:104ce800064b4ff480721a634ff440425a60002218
:104cf800da6104215962024b1a60704700c0004013
:044d0800d00e402069
:020000040000fa
:020000040040ba
:104d0c0008b5064b186a10f0140005d0044b1b684c
:104d1c0013b1034a5168984708bd00bf00c000405a
:044d2c00d00e402045
:020000040000fa
:020000040040ba
:104d30000fb407b5064b04aa1b6852f8041b186889
:104d4000019200f0d9f803b05df804eb04b07047ad
:044d5000640e40208d
:020000040000fa
:020000040040ba
:104d540070b50e46054600f045fa33460446024651
:104d640001212846fff721ff001b18bf4ff0ff3039
:024d740070bd10
:020000040000fa
:020000040040ba
:024d7600704784
:020000040000fa
:020000040040ba
:104d780008b5fdf7adfc054b1b7803b908bdfdf779
:104d880065fa024b00221a70f8e700bf220f402094
:020000040000fa
:020000040040ba
:104d9800064b1b69834203d2044b1b69c01a704738
:104da800024b1b69c3f5803318447047b80d402087
:020000040000fa
:020000040040ba
:104db80008b50021044800f05bfa002203490620e8
:104dc800fef72cfd08bd00bf3949400045244000ce
:020000040000fa
:020000040040ba
:104dd800064b013053f830203ab9c100a1f108025e
:104de8001a44194443f830204a60704708044020a8
:020000040000fa
:020000040040ba
:104df80010b5044680237f2209210078fef7d4fbf2
:0e4e08006378f82209212078fef7cefb10bd5a
:020000040000fa
:020000040040ba
:104e160010b5044600237f2209210078fef7c5fb62
:0e4e26006378f82209212078fef7bffb10bd4b
:020000040000fa
:020000040040ba
:104e340008b5054b1b782bb1034b5b6813b1024ad1
:0c4e44009268984708bd00bfa40e4020f3
:020000040000fa
:020000040040ba
:104e50000023034a1380034a1380034a13707047e8
:0c4e6000180f40201a0f4020260f4020a1
:020000040000fa
:020000040040ba
:104e6c00054a136923f004031361bff35f8f62b625
:0c4e7c00bff34f8f30bf704700ed00e027
:020000040000fa
:020000040040ba
:104e8800054b4ff486721a6050221a604ff40c6278
:0c4e98005a6051221a62704700800240ec
:020000040000fa
:020000040040ba
:104ea40010b582b08df80700012421460df10700ea
:0c4eb400fff736f90028f8d002b010bd5e
:020000040000fa
:020000040040ba
:104ec000054a536a18445062834200d87047936a77
:0c4ed00001339362fae700bfb80d4020e8
:020000040000fa
:020000040040ba
:104edc00c152400085524000915240001553400091
:0c4eec009d524000a9524000b552400009
:020000040000fa
:020000040040ba
:104ef80013b50446019201aafbf726ff636813f075
:0c4f0800100f18bf4ff0ff3002b010bdba
:020000040000fa
:020000040040ba
:104f140068076c094c836a9074a07ac00080688822
:0c4f240000846c820081286e696c2900fa
:020000040000fa
:020000040040ba
:104f300000b583b08df8070001210df10700fef7e1
:084f4000fffa03b05df804fb69
:020000040000fa
:020000040040ba
:104f4800044b1a6842f480221a601a6822f480120c
:084f58001a60704730180e408a
:020000040000fa
:020000040040ba
:104f6000044b9a689868824203d098689a68824293
:084f7000fbd1704730180e4020
:020000040000fa
:020000040040ba
:104f7800034b00225a6003499960da60704700bf0a
:084f880010180e40005002a5b4
:020000040000fa
:020000040040ba
:104f900049522056616c75653a20313434393339c1
:084fa00033393239393239008e
:020000040000fa
:020000040040ba
:104fa80010b50446fff752fe28b9a368e268c4e9c1
:084fb80005331344a36210bd90
:020000040000fa
:020000040040ba
:104fc00010f5805f81bf034b404218604ff0ff3007
:084fd000704700bf0c0f4020e8
:020000040000fa
:020000040040ba
:104fd80010b4c46a1cb123465df8044b1847006836
:084fe8005df8044bfff77abaf3
:020000040000fa
:020000040040ba
:104ff00010b5431e0a44914200d110bd11f8014b77
:0650000003f8014ff7e781
:020000040000fa
:020000040040ba
:105006000068002808b501da002008bdfff7a1fdf9
:06501600431cfad1f8e78b
:020000040000fa
:020000040040ba
:10501c00034b1b7b062b34bf02200320704700bfc1
:04502c00840e40208e
:020000040000fa
:020000040040ba
:1050300008b508461146024b9a7afef7f0fa08bd09
:04504000840e40207a
:020000040000fa
:020000040040ba
:105044005472616e73706172656e7455415254444a
:04505400656d6f0017
:020000040000fa
:020000040040ba
:10505800034b00225a601a603f225a62da61704795
:0450680060180e407e
:020000040000fa
:020000040040ba
:10506c00034b4ff480221a604ff48c121a60704775
:04507c0030180e409a
:020000040000fa
:020000040040ba
:10508000034b187f40b2003018bf0120704700bfab
:04509000200e40208e
:020000040000fa
:020000040040ba
:1050940008b50b4680f80811f02208210078fef7c5
:0450a40085fa08bdc4
:020000040000fa
:020000040040ba
:1050a80008b500f047f9024b1860586008bd00bf0a
:0450b800d80e4020ae
:020000040000fa
:020000040040ba
:1050bc00431e13f1030f03d803780bb141608260d8
:0250cc0070472b
:020000040000fa
:020000040040ba
:1050ce00eff3108072b6bff35f8fb0fa80f0400935
:0250de00704719
:020000040000fa
:020000040040ba
:1050e00018b1bff35f8f62b6704772b6bff35f8fc0
:0250f000704707
:020000040000fa
:020000040040ba
