:020000040000fa
:020000040040ba
:10000000f0ff4520293e4000395140003f5140005b
:100010004b5140005151400057514000000000003a
:100020000000000000000000000000000f3740004a
:1000300045514000000000000f3740000f374000de
:100040000f3740000f3740000f374000e1324000cb
:100050000f3740000f3740000f3740000f37400088
:100060000f37400000000000495040000f374000ab
:100070000f374000993740000f3740000f374000de
:100080000f3740000f3740000f374000612040001d
:100090000f3740000f3740000f37400049474000fe
:1000a0000f3740000f3740000f3740000f37400038
:1000b0000f3740000f3740000f3740000f37400028
:1000c0000f3740000f3740000f3740000f37400018
:1000d0000f3740000f3740000f3740000f37400008
:1000e0000f3740000f3740000f3740000f374000f8
:1000f0000f3740000f3740000f3740000f374000e8
:100100000f3740000f3740000f3740000f374000d7
:100110000f37400000000000000000000000000059
:100120000f3740000f3740000f3740000f374000b7
:100130000f3740000f3740000f3740000f374000a7
:100140000f3740000f3740000f3740000f37400097
:100150000f3740000f3740000f3740000f37400087
:080160000f3740000f3740008b
:020000040000fa
:020000040040ba
:10016800f8b500bff8bc08bc9e467047354640004d
:10017800f8b500bff8bc08bc9e4670471146400061
:020000040000fa
:020000040040ba
:080188008416000001000000d4
:020000040000fa
:020000040040ba
:1001900052656164696e6720726567697374657220
:1001a00073203078303920616464726573733a204b
:1001b0002564200a0d0000bf7e7e424f4f545f55dc
:1001c000507e7e0a0d0000bf57616974696e67201a
:1001d000666f72205057525f5244590a0d0000bf9b
:1001e0007e7e494e49545f4d4541535552457e7e72
:1001f0000a0d000053797374656d2074696d652074
:1002000069733a20253032643a253032643a253019
:1002100032643a253032643a253032643a2530323d
:10022000640a0d004146554c4c20494e5420454e21
:1002300020434845434b3a0a0d0000bf52443a2040
:100240005265673a20253032583b2056616c7565ff
:100250003a20253032580a0d000000bf4c4544209a
:100260004d4f444520434845434b3a0a0d0000bfdb
:100270007e7e574149545f464f525f494e547e7ec1
:100280000a0d00004649464f20505452204348452d
:10029000434b0a0d000000bf7e7e4d454153555231
:1002a000455f434f4d504c4554457e7e0a0d00003e
:1002b00025640a0d000000bf7e7e54494d45525f03
:1002c000434f4d504c4554457e7e0a0d000000bf03
:1002d0007e7e4552524f527e7e0a0d007e7e7e7e8d
:1002e0007e7e7e54657374696e677e7e7e7e7e7ec2
:1002f0007e0a0d0020506172742049443a2020206b
:100300002020202020253032580a0d00205265760a
:100310006973696f6e2049443a20202020253032cd
:10032000580a0d007e7e7e7e7e7e7e7e7e7e7e7e76
:100330007e7e7e7e7e7e7e7e7e0a0d0052656164bc
:10034000696e6720496e7465727275707420456eaf
:1003500061626c650a0d00005368757474696e679c
:1003600020446f776e0a0d0057523a205265673a63
:1003700020253032583b2056616c75653a20253077
:1003800032580a0d000000bf456e61626c6520495d
:100390006e746572727570740a0d00005365742076
:1003a000746865204649464f2041766572616765ed
:1003b0000a0d000052656164207468652046494654
:1003c0004f20417665726167650a0d0053657420a0
:1003d000524544204c45442050756c736520416d56
:1003e000706c69747564650a0d0000bf57616b65b8
:1003f0002075700a0d0000bf436865636b20496e6d
:10040000746572727570740a0d0000bf7e7e7e7e08
:100410005465737420436f6d706c6574657e7e7e69
:100420007e0a0d007e456e7465722070706753659c
:1004300074757028297e0a0d000000bf536f667422
:10044000207265736574206973737565640a0d00a5
:100450005368757420646f776e2050504720736521
:100460006e736f720a0d0000536574204649464f43
:1004700020617665726167650a0d0000536574201e
:100480004c4544206d6f64650a0d0000536574206f
:10049000616c6d6f73742066756c6c207468726526
:1004a00073686f6c640a0d005365742041444320e7
:1004b00052616e67650a0d005365742073616d703b
:1004c0006c6520726174650a0d0000bf536574206d
:1004d00070756c736577696474680a0d000000bffd
:1004e000456e61626c6520616c6d6f73742066751a
:1004f0006c6c20696e746572727570740a0d000000
:10050000736574207265642070756c736520616d0d
:10051000706c69747564650a0d0000bf53657420c2
:1005200049522070756c736520616d706c697475cb
:1005300064650a0d000000bf456e61626c65206c49
:100540006564207363686564756c650a0d0000bf9f
:10055000536c6f7420313a205265643b20536c6faa
:100560007420323a2049520a0d0000bf636c656165
:1005700072204649464f0a0d000000bf52545420d5
:10058000416c61726d0a0d00496e7465727275700e
:1005900074207472696767657265640a0d0000bf34
:1005a000494e54313a20253032580a0d000000bf20
:1005b000494e54323a20253032580a0d000000bf0f
:1005c0005057525f5244595f494e542054726967e4
:1005d00067657265640a0d00506172742049443a7f
:1005e000202532580a0d00005265766973696f6ed6
:1005f0002049443a202532580a0d00004449455ffd
:1006000054454d505f524459205472696767657272
:1006100065640a0d000000bf416c6d6f7374204665
:10062000756c6c205472696767657265640a0d00a9
:020000040000fa
:020000040040ba
:10063000900a40201c00000000000000ac0a40208e
:100640000c00000000000000d00a4020060000005e
:10065000010000000001010101010000b80a402072
:100660000800000000000000c00a40200800000050
:1006700000000000480a40202800000000000000a0
:10068000180a40203000000000000000d80a402076
:100690000400000000000000dc0a4020040000000c
:1006a0000000000020074020800000000000000043
:1006b000a00740208000000000000000d60a402073
:1006c0000100000000000000d70a402001000000e7
:1006d0000100000001000000f40a402001000000b9
:1006e0000100000002000000f50a402001000000a7
:1006f0000100000004000000f60a40200100000094
:100700000100000006000000f70a40200100000080
:100710000100000007000000f80a4020010000006e
:100720000100000008000000f90a4020010000005c
:100730000100000009000000fa0a4020010000004a
:10074000010000000a000000fb0a40200100000038
:10075000010000000c000000fc0a40200100000025
:10076000010000000d000000fd0a40200100000013
:100770000100000011000000fe0a402001000000fe
:100780000100000012000000ff0a402001000000ec
:1007900001000000fe000000000b402001000000ee
:1007a00001000000ff000000010b402001000000dc
:1007b000010000007f000000020b4020010000004b
:1007c0000100000080000000030b40200100000039
:1007d000010000001f000000040b40200100000089
:1007e00001000000f0000000050b402001000000a7
:1007f000010000007f000000060b40200100000007
:100800000100000080000000070b402001000000f4
:1008100000000000080b4020010000000100000063
:10082000bf000000090b4020010000000100000093
:10083000400000000a0b4020010000000100000001
:10084000f80000000b0b4020010000000100000038
:100850009f0000000c0b4020010000000100000080
:10086000e30000000d0b402001000000010000002b
:10087000fc0000000e0b4020010000000100000001
:10088000f80000000f0b40200100000001000000f4
:100890008f000000100b402001000000010000004c
:1008a000f8000000110b40200100000001000000d2
:1008b0008f000000120b402001000000000000002b
:1008c000130b40200100000000000000140b40202a
:1008d000010000000000000000094020640000004a
:1008e00000000000640940206400000000000000d7
:1008f000e00a402004000000000000001406402030
:100900000c01000000000000150b40200100000059
:1009100000000000e40a4020040000000000000085
:10092000c8094020500000000000000020084020be
:100930007800000001000000300840202808402016
:1009400030084020000000000000000025000000ea
:10095000080040200004000000000000000000002b
:100960000000000000000000000000000000000087
:1009700000000000000000005d5140000000000089
:100980000000000000000000000000006d3d40007d
:100990000000000000000000000000000000000057
:1009a0000000000000000000000000000000000047
:1009b000000040200804000000000000700a4020f1
:1009c0002000000001000000010000000300000002
:1009d0000000000000000000000000000000000017
:1009e00000000000c80a4020c80a4020080000009b
:1009f00000000000e80a40200400000000000000a1
:100a0000080440200c02000000000000980840206c
:100a10006800000001000000010000000300000069
:100a200000000000000000000000000000000000c6
:100a300000000000a93c4000000000000000000091
:100a40000000000063514000fb4740000000000030
:100a50000000000000000000000000000000000096
:100a60000000000000000000000000000000000086
:100a70000000000000000000000000000000000076
:100a8000ec0a40200400000000000000f00a4020b2
:100a90000400000000000000000000000000000052
:020000040000fa
:020000040040ba
:100aa0002de9f04f2ded0c8b1d4692ed008bd1e919
:100ab0000083b5eec08b8db0f1ee10fa03930b6995
:100ac0000790d1f808900493cc6807d418f0040f6d
:100ad00035d118f0080734d0202302e02d23b1eee1
:100ae000488b237009f1ff36012718ee901adff8c2
:100af00078b321f0004318ee102a4ff0000a5b454e
:100b000008bf524504eb0700a5f141011bd119298b
:100b100004eb070094bfd049d04904f0f7facf485e
:100b200004f0bffacdf8008002464b4621460798f4
:100b300002f0b4fe0db0bdec0c8bbde8f08f2b23a2
:100b4000cfe74e46d1e79b4508bf924507d219290a
:100b500094bfc349c34904f0d9fac248e0e7302240
:100b60001a2907f101030270b5ee408b34bf5822f9
:100b70007822f1ee10fae254b7ee009b07f102077b
:100b8000a6f102064ff0000a40f0e880b0ee49bb43
:100b9000b0ee48cb039b9fedaadb002bacbf9b467e
:100ba0004ff0180b0025b0ee4dab8cee0b0b069101
:100bb00002f0def96b1c0593039b00ee4bcb002b80
:100bc0002bee0dbb069904dab5ee40cbf1ee10fa30
:100bd00005d0ab4500f3e5800bf101030593b2eec0
:100be000007b2bee077bb4eec7cbf1ee10fa00f1e1
:100bf000da80b4ee47cbf1ee10fa09d1bdeec00bae
:100c00009fed916b10ee103a13f0010f06fe077b7b
:100c100038ee078b18ee900adff84cc218ee102a57
:100c200020f000434ff0000b634508bf5a453ff4e6
:100c30006eaf049a4ff0000b053a3d46cdf818b060
:100c40005b460992099aaa421ddd88ee090b0a93b8
:100c5000089102f08df9fdeec07bb0ee40bb17eebf
:100c6000900a08990a9b002840f0a080002b00f011
:100c70009d800bf1010b059a0bee498b01339a42d3
:100c800029ee0a9bded1069bdbb96319bbf1000f8d
:100c900000f0ec80039a002a40f3e88018f0010f7e
:100ca00040f0e4802e221a700beb05022244302023
:100cb00003f8010f9342fbd15d446fea0b0b013542
:100cc0005e4463190393049b04980022013b924500
:100cd0006255b8bfcaf1000ae254c0f1020bb8bfb6
:100ce00001224ff00a0cbaf1000f40f096800beb96
:100cf000030ebef1010f00f09080002a03f1ff3ccb
:100d000014bf2d222b22023b1a2904f80c2034bfd9
:100d1000502270229d4204eb0301e25402da039850
:100d200004f0f4f908f00303022b11d1b51e002dd5
:100d30000edd204604f0b5f9013e2044031b9f421e
:100d400077dd2a463021e01904f0a3f94ff00009bd
:100d50002046e5e60af1010ab0ee479b39ee097b31
:100d6000b4eec78bf1ee10faf4d5b6ee007bb0ee20
:100d7000475b9fed376bb4eec98bf1ee10fa7ff550
:100d800005af29ee074bb5ee404bf1ee10fa04bf6c
:100d900029ee069b28ee068b29ee059b0af1ff3a09
:100da000e9e7059d01e79fed287b31e7069a32b917
:100db0002bb12e2262550122013e01350692089583
:100dc00004eb050c5a4604e04ff0300e0cf801eb32
:100dd000013a002af8d10928089a05f1010506f11f
:100de000ff36d4bf3030573019295d445a44a6eb42
:100df0000b060ed840f0200cacf1610cbcf1190fc1
:100e000007d8cde90a32089104f079f9dde90a3210
:100e10000899a0544ff0000b2de7bafbfcfe013bf4
:100e20000cfb1eaa0af1300a04f803a0013ef246a8
:100e300059e710f80139835580e700bfaff3008010
:100e4000000000000000b03f0000000000000000b3
:100e50000000000000005043c2504000c650400057
:100e6000ca504000ce5040000000f07f18f0100f34
:0c0e70003ff427af2e2201351a7022e754
:020000040000fa
:020000040040ba
:040e7c00704700bffc
:020000040000fa
:020000040040ba
:100e80002de9f04f2ded0a8b92ed00bb8fb0b5ee42
:100e9000c0bb05938b680293f1ee10fa0b690790c3
:100ea0008946d1e900870893cd6808d418f0040f6b
:100eb00035d118f00803039333d0202302e02d230b
:100ec000b1ee4bbb2b70029b5e1e012303931bee06
:100ed000901a21f00043039969180491c2491bee4e
:100ee000102a00208b4208bf82421cd1059b049827
:100ef000413b192b94bfbd49bd4904f007f9bc48db
:100f000004f0cff8cdf800800246029b07982946ee
:100f100002f0c4fc0fb0bdec0a8bbde8f08f2b23b0
:100f2000d0e7029ed3e7994208bf90420ad2059bc0
:100f30000498413b192b94bfae49af4904f0e6f841
:100f4000ad48dde7b5ee40bbf1ee10fab2ee049b22
:100f5000b7ee00ab4ff0000416d1059804f0c8f8c6
:100f6000002fc0b2c0f2328167282ad1002f08bffb
:100f70000127231d02dbbc42c0f220814ff0650a2d
:100f80002fe00134b0ee47ab2aee097bb4eecb7b09
:100f9000f1ee10faf5dd0023984a9fed8f7b0ae011
:100fa000944205da23b92bee07bb2aee07ab0123e7
:100fb000013c8aee09abb4eecabbf1ee10faefd4f5
:100fc000cbe78246baf1660f07f1010709d1002c81
:100fd00002dab7ee00ab0024672818bf3f194ff0c4
:100fe000660a4ff0000bb0ee4a8bb0ee4bcb8ceea6
:100ff000080b069001f0bcff0bf1010bfdeec07b6e
:101000005f4590ee08cb17ee903ab1ee4ccb88eef0
:10101000098b0698ebd1b1ee047b28ee077bb4ee8a
:10102000c7cbf1ee10fa74d4b4ee47cbf1ee10fa60
:1010300005d19fed6b6b13f0010f06fe077bbaf134
:10104000650f14bf21460021cb1b0a934ff0000b04
:1010500008f01003039fcdf818b00b933bee07bbcd
:101060000a9b09978b4204d0d9f81030053bbb424c
:1010700052d8069b33b918f0100f1fbf099a2e23c0
:10108000ab5401370022baf1650f05eb0700ea55b2
:1010900029d1089b0899013b9442ea54c1f1030eff
:1010a000bcbf644201220a21002c79d10eeb030c53
:1010b000bcf1000f74dc002a03f1ff3114bf2d22b4
:1010c0002b226a54059a413a023b192a98bf4ff0e5
:1010d000450a9f4205eb030105f803a0a6f10206ad
:1010e00001da04f013f808f00303022b0fd1002eed
:1010f0000ddd284603f0d5ffab19039a824259dd76
:1011000032463021049803f0c4ff0023029328469e
:10111000f6e69fed337b92e78bee0a0bcde90c10e0
:1011200001f026fffdeec07b0b9b17ee902a1343c8
:10113000dde90c100ed167280cd1002917da0bf16c
:1011400001039aee00bb0139b1ee4bbb8aee09ab4d
:101150009b4685e7069b53b9002908da099b4ff0a7
:101160002e0c05f803c001230137013e06933a46d1
:1011700005eb070e5b4604e04ff0300c0ef801cb98
:10118000013b002bf8d12a44944617ee902a0137f0
:10119000013e30325f44a6eb0b060cf80b20d0e783
:1011a000b4fbf1fc013b01fb1c443034ec54013e28
:1011b000644679e72a5c1a5401389ee7002cbff692
:1011c0000eaf4ff0660afde60627d2e66728fbd091
:1011d00082460627f6e600bf0000000000005043ec
:1011e00000000000000000000000f07fd25040002e
:1011f000d6504000da504000de504000d4feffffe1
:020000040000fa
:020000040040ba
:1012000080b582b000afb34803f044feb24803f0ab
:1012100041feb24802f0a8fc0923fb71af4b1b78da
:10122000fa791146184603f013f80346bb71fb79af
:10123000ba791946aa4803f02dfeaa4803f02afeff
:10124000a64803f013f90923fb71a44b1b78fa7924
:101250001146184602f0fcfffb79ba791946a048fe
:1012600003f018fea04803f015fe04219b4801f08e
:1012700039fd0823fb71994b1b78fa791146184602
:1012800002f0e6ff0346bb71fb79ba791946944830
:1012900003f000fe954803f0fdfd07218f4803f0a1
:1012a00001fb0923fb718d4b1b78fa791146184617
:1012b00002f0ceff0346bb71fb79ba791946884824
:1012c00003f0e8fd8a4803f0e5fd0121834803f0bf
:1012d00095fa0823fb71814b1b78fa791146184661
:1012e00002f0b6ff0346bb71fb79ba7919467c4818
:1012f00003f0d0fd7f4803f0cdfd4ff480517748d7
:1013000002f0fafb0a23fb71744b1b78fa79114641
:10131000184602f09dff0346bb71fb79ba79194666
:101320006f4803f0b7fd744803f0b4fd4ff4c87183
:101330006a4801f083ff0a23fb71684b1b78fa7936
:101340001146184602f084ff0346bb71fb79ba7957
:101350001946634803f09efd684803f09bfd40f288
:101360009b115e4802f036fc0a23fb715b4b1b7835
:10137000fa791146184602f06bff0346bb71fb7900
:10138000ba791946564803f085fd5d4803f082fda1
:10139000524803f01bfb0223fb71504b1b78fa7978
:1013a0001146184602f054ff0346bb71fb79ba7927
:1013b00019464b4803f06efd524803f06bfd1f21a8
:1013c000464803f01bfb0c23fb71444b1b78fa7956
:1013d0001146184602f03cff0346bb71fb79ba790f
:1013e00019463f4803f056fd474803f053fd1f21bf
:1013f0003a4803f01bfb0d23fb71384b1b78fa793d
:101400001146184602f024ff0346bb71fb79ba79f6
:101410001946334803f03efd3c4803f03bfd3c4891
:1014200003f038fd012201212c4801f05dfe02226b
:1014300002212a4801f058fe1123fb71274b1b782b
:10144000fa791146184602f003ff0346bb71fb7997
:10145000ba791946224803f01dfd2e4803f01afd03
:101460001e4802f053fc0423fb711c4b1b78fa79d5
:101470001146184602f0ecfe0346bb71fb79ba79bf
:101480001946174803f006fd0523fb71134b1b7823
:10149000fa791146184602f0dbfe0346bb71fb7970
:1014a000ba7919460e4803f0f5fc0623fb710b4b85
:1014b0001b78fa791146184602f0cafe0346bb7142
:1014c000fb79ba791946064803f0e4fc00bf0837f7
:1014d000bd4680bd240440003c044000140640206a
:1014e0003c02400050044000680440007c0440007e
:1014f0008c044000a8044000b8044000cc04400024
:10150000e0044000000540001c0540003805400094
:08151000500540006c0540008d
:020000040000fa
:020000040040ba
:101518002de9f04fadb00027dff8e4a203910646ad
:101528001546b8464ff0ff3903990b78002b00f0a9
:10153800f9800cabcde907890a938023cdf8248084
:101548000b9300240b5d0bb1252b26d134b1224619
:10155800304603f031f9039b23440393039b1a7825
:10156800252a40f0d78003f1010bcdf80cb0039881
:1015780003782b2b1ad025d8202b1bd0232b1dd03a
:101588002a2b27d002f0b6ff0990039b1a78303a2d
:10159800092a2ed801330393f7e70134d2e7079bd2
:1015a80043f00103013007930390e0e7079b43f002
:1015b8000403f7e7079b43f00803f3e7079b43f0af
:1015c8001003efe72d2bead0302bd9d1079b43f03e
:1015d8000203e7e72b681a1d1b682a600130002bfd
:1015e8000390099305da079a5b4282f00102079299
:1015f8000993079bda0744bf23f002030793039b71
:101608001a782e2a0dd1581ccdf8208003905a78cc
:101618002a2a25d1023303932b681a1d1b682a60d6
:10162800089303a803f01ef9039b0190187803f0b0
:101638005bfd6928019979d032dc632800f0c68007
:1016480019dc252800f0d080612853d025238df897
:101658001030cdf80cb0cdf81c80cde90898c0e06a
:1016680002f048ff0890039b1a78303a092ad8d824
:1016780001330393f7e7642858d06728e6dc2a4645
:1016880004a803f079fb002800f09c80039b5a1cf7
:1016980003921b7804aa07a93046fff7edfb38e050
:1016a800702873d015dc6e2800f087806f28cdd1a4
:1016b8002b46002204a801f0fffe002800f08280db
:1016c800039b04aa013307a93046039302f0d6f915
:1016d8001fe075283ad0782848d07328b6d18029d9
:1016e80070d1039b2a6801330393131d2b60126882
:1016f80000235be02a4604a803f03efb002861d0e3
:10170800039b5a1c03921b7804aa07a93046fff7cb
:10171800c3f904443c44a7426edd384b4f221a609b
:101728004ff0ff3738462db0bde8f08f2b46012229
:1017380004a801f0c1fe002844d0039b04aa013389
:1017480007a93046039301f021fde2e72b4600226a
:1017580004a801f0b1fe002834d0039b04aa013389
:1017680007a93046039302f0effcd2e72b4600228c
:1017780004a801f0a1fe28b3039b5a1c03921b780e
:1017880004aa07a9304601f015f8c2e72b46002243
:10179800f02104a801f090fea0b1039b013303934c
:1017a800dde90423134306d10023524607a9304636
:1017b80002f09efcade77823e2e72b463a1904a82d
:1017c80002f0a7f8039b01330393a3e78029f9d11b
:1017d800039b013303932b681a1d1b682a608df83d
:1017e8001030012304aae1e78029ebd1039b8df88f
:1017f800100001330393f4e7274695e6ec0a4020ee
:04180800824f4000cb
:020000040000fa
:020000040040ba
:10180c002de9f047089e04468846002b40f0858061
:10181c008a42154648d9b2fa82f24ab1c2f120077f
:10182c0001fa02f320fa07f7954047ea03089440bf
:10183c004fea154e230cb8fbfef71ffa85fc0efb86
:10184c00178843ea084307fb0cf1994209d9eb18b6
:10185c0007f1ff3080f0e380994240f2e080023fd4
:10186c002b445b1aa4b2b3fbfef00efb103344ea1c
:10187c00034400fb0cfca44509d92c1900f1ff33df
:10188c0080f0cb80a44540f2c88002382c4440ea5a
:10189c000740a4eb0c0400271eb1d4400023c6e97a
:1018ac0000433946bde8f087002a53d0b2fa82f2e1
:1018bc00002a40f0b680491b4fea154e1ffa85f8f6
:1018cc000127b1fbfefc230c0efb1c1143ea014368
:1018dc0008fb0cf1994207d9eb180cf1ff3002d23e
:1018ec00994200f2ec808446591aa3b2b1fbfef087
:1018fc000efb101443ea044408fb00f8a04507d97a
:10190c002c1900f1ff3302d2a04500f2dc801846fe
:10191c00a4eb080440ea0c40bee78b4208d9002e29
:10192c0078d00027c6e9000138463946bde8f08773
:10193c00b3fa83f77fb98b4202d3824200f2bd80a7
:10194c00841a61eb030301209846002ea9d0c6e946
:10195c000048a6e7ffdec7f12005bb4022fa05fcd4
:10196c004cea030c01fa07f420fa05f821fa05f306
:10197c004fea1c4e48ea0404b3fbfef9210c0efba3
:10198c0019331ffa8cf841ea034309fb08fa9a450c
:10199c0002fa07f200fa07f10bd91ceb030309f169
:1019ac00ff3080f088809a4540f28580a9f10209c9
:1019bc006344a3eb0a03a4b2b3fbfef00efb10339b
:1019cc0044ea034400fb08f8a04508d91ceb0404c6
:1019dc0000f1ff336bd2a04569d90238644440ea68
:1019ec000940a4eb0804a0fb02894c45c6464b46b3
:1019fc0054d351d0002e69d0b1eb0e0264eb03042a
:101a0c0004fa05f522fa07f3fc401d43c6e900541d
:101a1c00002746e73746304643e7184637e7074680
:101a2c001fe7c2f1200320fa03f7954001fa02f0f8
:101a3c0021fa03f34fea154e3843010cb3fbfef7c2
:101a4c001ffa85f80efb173341ea034107fb08f335
:101a5c008b4204fa02f407d9691807f1ff3c28d22b
:101a6c008b4226d9023f2944cb1a81b2b3fbfef03c
:101a7c000efb103341ea034100fb08f38b4207d9fc
:101a8c00691800f1ff3c10d28b420ed90238294460
:101a9c00c91a40ea074714e74145abd2b8eb020e2e
:101aac0069eb0c0201381346a4e76046f0e71846d0
:101abc0095e76746d8e781467be7384645e7acf1c2
:101acc00020c2b4410e702382c4421e73746e8e699
:020000040000fa
:020000040040ba
:101adc002de9f04f99b004af4ff000034ff0000424
:101aec00c7e912344ff000034ff00004c7e910347b
:101afc00002002f0d1fb944b00221a7003f078f90d
:101b0c0002f0e4fe914803f0e1f903f0e4fa8e4ba5
:101b1c001b78042b00f2128101a252f823f000bfb3
:101b2c00411b40006f1b4000291c40003b1d400026
:101b3c00ad1c4000864803f0a7f9864803f0a4f9d1
:101b4c0000bf854b1b78dbb283f00103dbb2002bab
:101b5c00f7d1fff74ffb03f011fa7b4b01221a7000
:101b6c00f0e07e4803f090f907f11003184600f0fe
:101b7c00bbff786a3c6afb697b60bb697a6939692f
:101b8c000291019200937b6822460146744803f04f
:101b9c007bf96e4802f088fc724803f075f9022359
:101bac0087f83f30694b1b7897f83f201146184651
:101bbc0002f048fb034687f83e3097f83f3097f821
:101bcc003e201946684803f05ff9684803f05cf959
:101bdc00092387f83f305d4b1b7897f83f2011465f
:101bec00184602f02ffb034687f83e3097f83f303b
:101bfc0097f83e2019465c4803f046f9534802f02a
:101c0c007ff85b4b00221a604ff000034ff000048a
:101c1c00c7e910344c4b02221a7093e0d7e9103408
:101c2c00234302d1534803f02ff9d7e910346ff056
:101c3c007f414ff0000203ea010504ea020655ea6f
:101c4c00060324d14c4803f01ff9042387f83f30d6
:101c5c003e4802f0dfff034687f83e3097f83f30ee
:101c6c0097f83e201946404803f00ef9062387f8f2
:101c7c003f30364802f0e4ff034687f83e3097f8d1
:101c8c003f3097f83e201946374803f0fdf8d7e966
:101c9c00103413f1010844f10009c7e9108951e02f
:101cac00364803f0f1f8294802f0dafb4ff0000354
:101cbc004ff00004c7e912340fe0314abb6c32f824
:101ccc00133019462f4803f0dff8d7e9123413f11b
:101cdc00010a44f1000bc7e912abd7e91234002c0e
:101cec0008bf322be9d34ff000034ff00004c7e9d3
:101cfc00123412e0244abb6c32f8133019462148d6
:101d0c0003f0c2f8d7e912345a1cba6044f100034c
:101d1c00fb60d7e90234c7e91234d7e91234002c3e
:101d2c0008bf322be6d3084b02221a700ae0174880
:101d3c0003f0aaf8044b01221a7003e0144803f0d4
:101d4c00a3f800bfe1e600bf150b402014064020ad
:101d5c00b8014000c8014000120b4020e0014000d7
:101d6c00f4014000240240003c0240005c024000b0
:101d7c00e00a4020700240008402400098024000bb
:101d8c0064094020b002400000094020b802400025
:041d9c00d002400031
:020000040000fa
:020000040040ba
:101da00080b5b8b002af78600b46fb7000237b8132
:101db0007b685b78022b7bd1fb789bb21a46520082
:101dc0001344a7f8ce307b681b7898b2b7f8ce30b2
:101dd00007f10c020093134601229e4901f0f6ff21
:101de000034687f8d73000bf03f042f80346002bc4
:101df000fad100237b8104e07b899bb201339bb243
:101e00007b817b899bb240f2ed229342f4d97b68bf
:101e10009b78c3f1120387f8cd300023c7f8d03088
:101e200040e0d7f8d02013465b00134407f1d802f6
:101e3000134413f8cc3c1a4697f8cd30c3f1100385
:101e400002fa03f1d7f8d0305a1c13465b00134452
:101e500007f1d802134413f8cc3c1a4697f8cd305a
:101e6000c3f1080302fa03f31943d7f8d0309a1ce0
:101e700013465b00134407f1d802134413f8cc3c1b
:101e80001a4697f8cd3042fa03f30b4323f07f4212
:101e90007149d7f8d03041f82320d7f8d03001333a
:101ea000c7f8d030fb78d7f8d0209a42b9dbc7e02a
:101eb0007b685b78032b40f0c180fb789bb21a46ad
:101ec000520013445b00a7f8ce307b681b7898b2b1
:101ed000b7f8ce3007f10c020093134601225d499a
:101ee00001f074ff034687f8d73000bf02f0c0ff4f
:101ef0000346002bfad100237b8104e07b899bb24f
:101f000001339bb27b817b899bb240f2ed229342ed
:101f1000f4d97b689b78c3f1120387f8cd30002396
:101f2000c7f8d03083e0d7f8d02013465b001344c5
:101f30005b0007f1d802134413f8cc3c1a4697f81b
:101f4000cd30c3f1100302fa03f1d7f8d0305a1c98
:101f500013465b0013445b0007f1d802134413f8e7
:101f6000cc3c1a4697f8cd30c3f1080302fa03f3cc
:101f70001943d7f8d0309a1c13465b0013445b001a
:101f800007f1d802134413f8cc3c1a4697f8cd3029
:101f900042fa03f30b4323f07f422f49d7f8d030a6
:101fa00041f82320d7f8d030da1c13465b001344e5
:101fb0005b0007f1d802134413f8cc3c1a4697f89b
:101fc000cd30c3f1100302fa03f1d7f8d0301a1d57
:101fd00013465b0013445b0007f1d802134413f867
:101fe000cc3c1a4697f8cd30c3f1080302fa03f34c
:101ff0001943d7f8d0305a1d13465b0013445b00d9
:1020000007f1d802134413f8cc3c1a4697f8cd30a8
:1020100042fa03f30b4323f07f421049d7f8d03044
:1020200041f82320d7f8d0300133c7f8d030fb78ff
:10203000d7f8d0209a42fff676af01e0002304e003
:10204000786801f063fe97f8d7301846d837bd4658
:1020500080bd00bff70a402020074020a007402095
:020000040000fa
:020000040040ba
:1020600090b583b000af974b1b6a7b607b6803f42d
:102070008073002b05d0944bff221a77924b0122dc
:102080005a777b6803f00103002b08d08d4b0822a0
:102090001a608c4b04221a608a4b07229a627b6872
:1020a00003f40073002b02d0874b01221a77864b72
:1020b0005b7fdbb2002b40f0bc80834b1b7f5bb2ad
:1020c000013b032b00f2b78001a252f823f000bfbe
:1020d000e1204000b92140000521400021224000bc
:1020e000794bdb68002b06d0774b1b880021184604
:1020f00000f07cfca6e0744b1b880121184600f020
:1021000075fc9fe07b6803f00403002b00f09580d2
:102110006d4b5a696c4bdb68013b9a4215d16a4b97
:102120001b69002b11d072b6664b04229a62664b73
:102130005a68654b5b69591c6348416113441a78be
:10214000604b5a6302f06ef932e05f4b5a695e4ba6
:10215000db68013b9a4220d15b4b5a685a4b5b6962
:10216000591c5948416113441a78564b5a63554bd0
:1021700002221a60534b04229a62524b1b6a7b6004
:102180007b6803f00103002b03d04f4b05221a7725
:102190000ee04d4b04221a770ae04b4b5a684a4b2b
:1021a0005b69591c4848416113441a78454b5a638e
:1021b000444b1b6a7b6040e07b6803f00203002b0a
:1021c0003dd0414b9a69404b1b69023b9a4202d178
:1021d0003c4b02221a603b4b1c6b3b4b9a683a4bc0
:1021e0009b69591c384881611344e2b21a70364b1e
:1021f0009a69354b1b699a4221d1324b02229a626d
:10220000304b1b6a7b607b6803f00103002b03d01b
:102210002d4b05221a7712e02b4b04221a770ee081
:102220007b6803f00103002b0bd0274b05221a77a4
:1022300007e000bf06e000bf04e000bf02e000bf0f
:1022400000e000bf204b1b7f5bb2b3f1ff3f15d115
:102250001d4b00221a771b4b07229a62194b08224a
:102260001a60184b04221a60174b1b6a002b05d00a
:10227000154b1b6a144a526a10469847124b1b7f33
:102280005bb2052b19d1104b00225a770e4b00225e
:102290001a770c4b07229a620a4b08221a60094be4
:1022a00004221a60084b1b6a002b06d0064b1b6adf
:1022b000054a526a1046984700bf00bf0c37bd461a
:0c22c00090bd00bf00800140480a402093
:020000040000fa
:020000040040ba
:1022cc0080b483b000af784b0022c3f81421764b56
:1022dc00d3f81431744a43f01003c2f81431734b21
:1022ec0018225a60714b6ff018021a606f4b4ff046
:1022fc00ff325a656d4b4ff0ff321a666b4b4ff045
:10230c00ff32c3f89020694b4ff0ff32c3f8a02086
:10231c00664b00221a61654b4ff0ff325a61634bda
:10232c0000229a63614b4022c3f8b0205f4bdb6cf8
:10233c005e4b0022c3f818215d4b10221a675c4bd0
:10234c0013225a675a4b13225a60594b6ff01302df
:10235c001a60574b4ff0ff325a65554b4ff0ff3216
:10236c001a66534b4ff0ff32c3f89020504b4ff08e
:10237c00ff32c3f8a0204e4b04221a614c4b6ff075
:10238c0004025a614a4b00229a63494b0022c3f85b
:10239c001821484b4ff0ff321a60464b4ff0ff327a
:1023ac005a65444b4ff0ff321a66424b4ff0ff32e6
:1023bc00c3f890203f4b4ff0ff32c3f8a0203d4ba9
:1023cc0000221a613b4b4ff0ff325a61394b00220d
:1023dc009a63384b0022c3f81821374b4ff0ff3269
:1023ec001a60354b4ff0ff325a65334b4ff0ff32ca
:1023fc001a66314b4ff0ff32c3f890202e4b4ff042
:10240c00ff32c3f8a0202c4b4ff400621a612a4b08
:10241c006ff400625a61284b4ff400629a63264baa
:10242c000022c3f81821254b4ff0ff321a60234bc2
:10243c004ff0ff325a65214b4ff0ff321a661f4b9b
:10244c004ff0ff32c3f890201c4b4ff0ff32c3f813
:10245c00a0201a4b00221a61184b4ff0ff325a6120
:10246c00164b00229a63154b0022c3f81821144b0b
:10247c0006221a8000237b600ce011497a6813460f
:10248c005b0013449b000b44043300221a607b68ee
:10249c0001337b607b68002befd000bf0c37bd464f
:1024ac005df8047b704700bf00800840000e0e40b2
:1024bc0000100e4000120e4000140e4000160e408c
:0424cc00ac0a4020f6
:020000040000fa
:020000040040ba
:1024d0002de9f04f87b0039003a802f0b9f8002867
:1024e00003da002007b0bde8f08f039b1b095d1ed7
:1024f000202d0fd9023b5e4ab3f5007f35bf02ebba
:10250000d30302ebd31313f8045c13f8045c34bf59
:10251000013511350123a5f12001c5f1200203fa8f
:1025200001f923fa02f203fa05f8d8f1000849eaa2
:10253000020969eb4909cde90089dff84081dff83c
:1025400030914746d8e90023009902ea010a01992f
:1025500003ea010b5aea0b0342d1039b05a810338f
:10256000059302f066fd18b9424b0c221a60b9e7d8
:10257000d8f80852a84206d0059b103b05930123ca
:1025800000f110058360059bea18012143f0010367
:10259000b5f1080442f8083c42f8041cc7f80822c8
:1025a00045f8043c9dd0204602f058fa88b155f811
:1025b000083c55f8041c23f00103e31a5a6822f082
:1025c00001020a445a6055f8041c21f001016250ce
:1025d0001c462046039902f088fa04f1080081e7be
:1025e0005446254bbaf1000f34d1cbf1000000ea7c
:1025f0000b00434309ebd36393f83c60203630462d
:1026000002f07afc731c57f8334007ebc303083b16
:102610009c4297d0272e26dd0235ae4201dc3f2eac
:1026200021d16268039922f00102551a284602f06e
:1026300001f9864217d1e068a6686318d8609e60e9
:1026400083609868c36041f0010060505d60a550f0
:102650006060bee7caf100002040434309ebd3634a
:1026600093f83c60cbe73146204601f019fdb0e716
:10267000e03e4000ec0a402029e66b0708044020b9
:020000040000fa
:020000040040ba
:1026800090b587b000af78600123fb757b685b690c
:1026900003f26c727b685a617b68db68184602f053
:1026a00035f803461c067b689b690133184602f027
:1026b0002df803465b051c437b681b6901331846f4
:1026c00002f024f803461b041c437b685b69394a0b
:1026d00082fb03125111da178a1a642101fb02f2fc
:1026e0009a1a1346184602f011f803461b021c43bf
:1026f0007b685b692f4a82fb03125211db17d31ae6
:10270000184602f003f8034623433b617b689b684d
:10271000184601f0fbff03461c047b685b68184603
:1027200001f0f4ff03461b021c437b681b6818463c
:1027300001f0ecff03462343fb601f4b1b681e4a5e
:1027400023f0030313601c4b1022da6100bf1a4b05
:102750009b6903f00403042bf9d1174b1b68164a3d
:1027600043f00303136000bf134b9b6903f00103a5
:10277000002bf9d0104bdb690f4a43f00b03d361f8
:102780000d4a3b69d3600c4afb6893600a4b1b6897
:10279000094a23f003031360074bdb6a03f00303ca
:1027a000002b01d00023fb75fb7d18461c37bd466e
:0c27b00090bd00bf1f85eb5160180e406b
:020000040000fa
:020000040040ba
:1027bc002de9f04f89461946d9e90153d9f8008023
:1027cc00d9f80ca0002d8bb0a8bf28f002088346c6
:1027dc00b8bf012518f010009646d2e900670290a8
:1027ec0051d056ea07024ed0981e18f008040394f4
:1027fc00d9f8104018bf00f1ff30401b013c4ff0de
:10280c00000c049008f0020005900af804c0a1f135
:10281c0041000690012c0add56ea070235d1002d45
:10282c0033dc049a5019002801dd059a6abb029a20
:10283c0062b1dee9006756ea070207d00aeb040230
:10284c00023c02f8011c30220af80420039a1ab147
:10285c00013c20220af80420d9f81020cdf8008081
:10286c00013a121b0aeb0401584601f011f8dbf88f
:10287c000430db0504d5d9f804309842b8bf1846ab
:10288c000bb0bde8f08f1846afe706f00f00069ac4
:10289c000928d4bf30305730192a04f1ff340ed830
:1028ac0040f0200cacf1610cbcf1190f07d8cde94c
:1028bc0008e1079302f01dfcdde908e1079b0af82b
:1028cc000400300940ea07704fea171c013d064628
:0428dc0067469fe7c5
:020000040000fa
:020000040040ba
:1028e00080b584b000af03463960fb80314802f008
:1028f0006bf90346fb732f4802f07cf90346bb7368
:102900002d4802f0c7fafb7b19462c4802f0c2faa8
:10291000bb7b19462a4802f0bdfafb7b03f001039a
:10292000002b26d0274b01221a70274802f0b2fa5a
:10293000204802f0a1f903461a46244b1a701d489c
:1029400002f0b0f903461a46214b1a701f4b1b7850
:102950001946204802f09efa1d4b1b7819461e4866
:1029600002f098fafef74cfc02f00efb1b4b012222
:102970001a70bb7b03f00203002b02d0184802f050
:1029800089fa97f90f30002b0fda164802f082fa15
:102990001f210848fff704fa00f042fd124b1b68a4
:1029a000312b02d90d4b04221a7000bf1037bd46df
:1029b00080bd00bf1406402088054000a0054000ef
:1029c000b0054000120b4020c0054000140b402011
:1029d000130b4020d8054000e8054000150b4020af
:0c29e000fc05400018064000e00a402002
:020000040000fa
:020000040040ba
:1029ec0080b582b000af03460a46fb8013467b716c
:1029fc00fb887f2b0dd9fb881b121b0403f4fe03f1
:102a0c00374a43f480735360fb88354adbb2d3609a
:102a1c0005e0fb881b04324a03f4fe035360314b80
:102a2c0000225a612f4b00229a617b7983f00103bb
:102a3c00dbb2002b4ad02b4bdb68012b35d1294b59
:102a4c001b69002b14d1274b04221a77254b5a688b
:102a5c00244b5b69591c2348416113441a78204b61
:102a6c005a631f4b02221a601d4b01225a622de041
:102a7c0072b61c4b5a681b4b5b69591c1948416157
:102a8c0013441a78164b5a6300bf154b1b6a03f09c
:102a9c000503002bf9d100bf114b1b6a03f0040393
:102aac00002bf9d001237b7110e00e4b03221a7717
:102abc000c4b5a680b4b5b69591c0a484161134417
:102acc001a78074b5a63064b05225a627b79002b06
:102adc0001d001f0a1fc00bf0837bd4680bd00bf8e
:082aec0000800140480a40206f
:020000040000fa
:020000040040ba
:102af40090b585b000af78603a4b9b68fb6002e00c
:102b0400384b9b68fb60374b9b68fa689a42f7d155
:102b1400344bdb68bb6002e0324bdb68bb60314b9b
:102b2400db68ba689a42f7d1fb681b0c03f03f03d9
:102b3400184601f0c1ff03461a467b689a60fb6899
:102b440003f07f03184601f0b7ff03461a467b687b
:102b54001a60fb681b0a03f07f03184601f0acff00
:102b640003461a467b685a60bb681b0e03f03f039a
:102b7400184601f0a1ff03461a467b68da60bb6879
:102b84005b0d03f00703184601f096ff0346013b73
:102b94001a467b689a61bb681b0c03f01f03184636
:102ba40001f08aff0346013b1a467b681a61bb6841
:102bb40003f07f03184601f07fff0246642303fb02
:102bc40002f4bb681b0adbb2184601f075ff03462a
:102bd4002344a3f26c731a467b685a6100bf14370e
:082be400bd4690bd60180e40d3
:020000040000fa
:020000040040ba
:102bec002de9f84300286ad050f8043ca0f1080401
:102bfc0023f00106a719a259934200d0ffde7a6890
:102c0c0023681340da070fd4204601f021ff002877
:102c1c0057d1384602f06cf80028f0d07b6823f0ce
:102c2c0001031e441f44eae746f00103636030468b
:102c3c003b6001f0f9fd054602f058f923687a680b
:102c4c001340db07e0d5dff88ce0dee90089c5f145
:102c5c00200ca5f1200228fa05f009fa0cfc29fa3f
:102c6c0002f240ea0c001043012100ea01020023a9
:102c7c001343c5f120007346a5f1200212d121faad
:102c8c0000f001fa02f2a94042ea00021ebfdef88f
:102c9c0000000143cef8001022b1def804100a4304
:102cac00cef80420681c03ebc003a3f10802666095
:102cbc003e60a2605a68e2605c60e3689c60bde8bc
:102ccc00f883236823f00103e41a636823f00103fb
:082cdc001e449ee7080440209d
:020000040000fa
:020000040040ba
:102ce40080b584b000af78600b46fb700023fb73a3
:102cf400fb78013b1f2b55d801a252f823f000bfeb
:102d0400852d40008b2d4000a92d4000912d4000c1
:102d1400a92d4000a92d4000a92d4000972d400069
:102d2400a92d4000a92d4000a92d4000a92d400047
:102d3400a92d4000a92d4000a92d40009d2d400043
:102d4400a92d4000a92d4000a92d4000a92d400027
:102d5400a92d4000a92d4000a92d4000a92d400017
:102d6400a92d4000a92d4000a92d4000a92d400007
:102d7400a92d4000a92d4000a92d4000a32d4000fd
:102d84000023fb7311e02023fb730ee04023fb734d
:102d94000be06023fb7308e08023fb7305e0a023b2
:102da400fb7302e00023fb7300bf7b681878054bbc
:102db4001978054b1a78fb7b01f01efa00bf103717
:0c2dc400bd4680bdf80a4020030b4020f3
:020000040000fa
:020000040040ba
:102dd00090b587b000af78607b68db6c3b617b6847
:102de0009b6c3a6913403b617a682a4b13445b0a37
:102df000fb60294afb6813441b787b613ee027494e
:102e00007a6913465b0013449b000b44b3f900300e
:102e10009bb203f01f03012202fa03f31a463b6937
:102e20001340002b27d01d497a6913465b001344d9
:102e30009b000b4404331b68002b1cd017497a6994
:102e400013465b0013449b000b4404331c68134976
:102e50007a6913465b0013449b000b44b3f90000ee
:102e60000e497a6913465b0013449b000b440833f8
:102e70001b681946a0477b6901337b61fb680133fe
:102e8000054ad35c1a467b699342b8d300bf1c370e
:102e9000bd4690bd00f2f1bfd00a4020ac0a4020f0
:020000040000fa
:020000040040ba
:102ea00080b483b000af7860284b294a5a6000bfd5
:102eb000264b9b6803f00103002bf9d0234bdb6802
:102ec000244a1360234b1b68db0903f003037a6871
:102ed0009a4234d07b6803f00203002b03d01e4bd0
:102ee0000b221a6002e01c4b0c221a601a4b1a6863
:102ef00016491a4b13434b6000bf144b9b6803f0f9
:102f00000103002bf9d07b6803f00103002b03d0f1
:102f1000114b0b221a6002e00f4b0c221a600e4b71
:102f20001a680a490e4b13434b6000bf074b9b685e
:102f300003f00103002bf9d00a4b0b4a1a6000bfc3
:102f40000c37bd465df8047b704700bf000c0e4097
:102f50000d00005ad80a4020dc0a40200008005a20
:0c2f60000007005a00180e40010000a5f8
:020000040000fa
:020000040040ba
:042f6c00002070478a
:020000040000fa
:020000040040ba
:102f700053ec102bc3f30a512de9f04140f2fd70e0
:102f80004e1e86421d4644d8a1f2ff30002835db94
:102f9000332831dc264bc0f120084ff0ff3c03fa08
:102fa00008f2a1f21f412cfa00fc10ee104a4cea84
:102fb000020c23fa01f24cea020c23fa00fe04eaa6
:102fc0000c0605ea0e0724ea0c0256ea070425ea75
:102fd0000e030fd0002a73f100040bda4ff48015b2
:102fe00005fa08f425fa01f10c43121925fa00f04c
:102ff00040eb030343ec102bbde8f0819fed0a7b0f
:10300000bfee000b002a73f1000327fe000bbde8a2
:10301000f0810029f0d10a4603f0004343ec102b65
:10302000eae700bfaff300800000000000000000ee
:04303000ffff0f008f
:020000040000fa
:020000040040ba
:1030340080b582b000af0023fb80284b93f82c307e
:10304400002b46d022e0264b9b699bb2c3f30803b6
:10305400fb80234b5b6803f40033002b0bd01f4b26
:103064009a691e4b1b6a591c1c4801625b0013447d
:10307400fa881a800ae0194b9a69184b1b6a591c82
:10308400164801621344fa88d2b21a70144b5b6971
:1030940003f00103002b05d0104bda690f4b1b6ab8
:1030a4009a42d0d80d4b1a6a0c4bdb699a4210d362
:1030b4000a4b002283f82c20094be122da60074beb
:1030c4005b6a002b05d0054b5b6a044a926a104682
:1030d400984700bf0837bd4680bd00bf180a40208e
:0430e4000040024066
:020000040000fa
:020000040040ba
:1030e80080b582b000af78600b46fb701346bb70aa
:1030f800fb78013b032b37d801a252f823f000bf1d
:10310800193140002d31400045314000593140000f
:103118007b681878174b1978174b1a78bb7801f029
:1031280069f822e07b681878124b1978134b1a78e3
:10313800bb781b01dbb201f05df816e07b681878fc
:103148000f4b19780f4b1a78bb7801f053f80ce045
:103158007b6818780a4b19780b4b1a78bb781b01d7
:10316800dbb201f047f800e000bf00bf0837bd46fa
:1031780080bd00bffd0a40200e0b40200f0b4020f1
:0c318800fe0a4020100b4020110b4020dc
:020000040000fa
:020000040040ba
:103194002de9f041d2e900230c4686b007465feae8
:1031a400d37820684968a5680590e66841d0524202
:1031b40063eb4303002908db20f002000590b8f11b
:1031c400000f02d1059948072ad5691e05a8029067
:1031d4000a20cde90010204600f0dbfbb8f1000f17
:1031e40002d1059b59071fd5b8f1000f00f1ff303c
:1031f40014bf2d232b2333542269059b0093013ada
:103204002b46121a3118384600f046fb7b68db0562
:1032140003d563689842b8bf184606b0bde8f0818c
:103224000807d2d42946d1e71a07e5d50138202367
:08323400e1e70029c0dac5e75b
:020000040000fa
:020000040040ba
:10323c0080b584b000af78600b467b807b88b3f59b
:10324c00c87f23d0b3f5c87f06dc642b18d0c82bfd
:10325c0019d0322b11d028e0b3f57a7f1cd0b3f5fe
:10326c007a7f03dcb3f5487f13d01ee0b3f5c86f4b
:10327c0015d0b3f5486f15d017e00023fb7317e09a
:10328c000423fb7314e00823fb7311e00c23fb7382
:10329c000ee01023fb730be01423fb7308e01823e0
:1032ac00fb7305e01c23fb7302e00023fb7300bfe0
:1032bc007b681878054b1978054b1a78fb7b00f066
:1032cc0097ff00bf1037bd4680bd00bffa0a4020f3
:0432dc000c0b402077
:020000040000fa
:020000040040ba
:1032e00080b582b000af244bdb687b60224b1b684b
:1032f0003b60214b1b68204a23f4403313603b683a
:1033000003f40033002b16d07b6803f00203002b7c
:103310000bd01a4b1b68002b07d0184b1b68174aa1
:10332000526811464ff400309847134b1b68124afd
:1033300043f4003313603b6803f48033002b16d052
:103340007b6803f00103002b0bd00c4b1b68002b98
:1033500007d00a4b1b68094a526811464ff4803067
:103360009847054b1b68044a43f48033136000bf41
:103370000837bd4680bd00bf30180e40b80a402057
:020000040000fa
:020000040040ba
:1033800080b500af244b1b7d002b42d01fe0234ba8
:103390005b6803f40033002b0ed01f4b1a681e4be2
:1033a0009b68591c1c4881605b0013441b881b4aa6
:1033b000c3f30803d3610ae0174b1a68164b9b68e6
:1033c000591c1548816013441a78144bda61134b69
:1033d0005b6903f00203002b05d00f4b5a680e4bbc
:1033e0009b689a42d3d80c4b9a680b4b5b689a4205
:1033f0000fd3094b00221a75084b0222da60064be4
:10340000db68002b05d0044bdb68034a12691046c9
:10341000984700bf80bd00bf180a4020004002400e
:020000040000fa
:020000040040ba
:1034200080b584b000af224801f0c7fdb8602048e5
:1034300001f0b7fd78601f4b1b681f33312b06d995
:103440001c4b1b68dbb2c3f13203dbb200e01f236d
:10345000fb70184b1b68fb601ce0164b1b68fa687e
:10346000d31a9b00ba6813441b6899b2124afb68ce
:1034700022f813100f4b1b68fa68d31a9b007a6866
:1034800013441b6899b20d4afb6822f81310fb68bd
:103490000133fb60fa78074b1b681344fa689a42c1
:1034a000dbd3044afb68136000bf1037bd4680bd04
:1034b00014064020e00a4020640940200009402012
:020000040000fa
:020000040040ba
:1034c000882930b534d012dc81293fd003dc802933
:1034d0003cd0002030bd82290ed08429f9d11c684f
:1034e00054f8041b1c60f2b10ab2d3171de0a029e6
:1034f00027d00cdc9029ecd11968073121f00701a5
:10350000f1e802451960c0e900450120e2e7c02961
:1035100001d0f029ddd11a68111d1960136803600c
:1035200000234360f1e78ab20023c0e90023ece7ff
:103530001c6854f8041b1c600ab14ab2d5e7cab231
:10354000f2e71a68111d19601268cee719680c1da0
:103550001c600ab10a68c8e70b68c0e90032d4e70a
:020000040000fa
:020000040040ba
:1035600080b487b000af0346b9607a60fb81b7f9d9
:103570000e305b111bb2bb75bb7d1c4ad35cfb7567
:1035800025e0fa7d1a4913465b0013449b000b4467
:10359000b3f90030b7f90e209a4215d1fa7d1449db
:1035a00013465b0013449b000b440433ba681a6053
:1035b000fa7d0f4913465b0013449b000b4408330c
:1035c0007a681a6001230ae0fb7d0133fb75bb7d3d
:1035d0000133064ad35cfa7d9a42d2d300231846bf
:1035e0001c37bd465df8047b704700bfd00a402001
:0435f000ac0a4020c1
:020000040000fa
:020000040040ba
:1035f40080b485b000af214b5b6903f48033002baa
:1036040001d000bf34e01d4b0022c3f88420bff377
:103614004f8f1a4bd3f88030fb60fb685b0bc3f30e
:103624000e03bb60fb68db08c3f309037b60bb6864
:103634005a0143f6e07313407a6892070f49134323
:10364400c1f860327b685a1e7a60002befd1bb68e8
:103654005a1eba60002be5d1bff34f8f074b5b694d
:10366400064a43f480335361bff34f8fbff36f8f28
:1036740000bf1437bd465df8047b704700ed00e0e1
:020000040000fa
:020000040040ba
:103684002de9ff41836946690093f61acde901618a
:1036940004461746039216444ff002086d4642460c
:1036a4002946206801f03efbb04209d1d4e9023238
:1036b400c4e905331a44a262384604b0bde8f08177
:1036c40000280dda6268002342f01002b8f1020ffc
:1036d400a362c4e90533626015d06b68ff1aebe797
:1036e4006b68984288bf0835a6eb000688bfc01aed
:1036f4002b6803442b606b68a3eb000088bf08f1c0
:0a370400ff386860cbe71f46d6e7e8
:020000040000fa
:020000040040ba
:02370e00fee7d4
:020000040000fa
:020000040040ba
:103710001e4b1f4a9342f0b438bf002103d203f876
:10372000011b9342fbd11b4ad2e9000150ea01037d
:103730004ff0000610d09468034602f10c076cb9f4
:1037400021b1014403f8016b9942fbd13a46d2e919
:10375000000150ea0103eed1f0bc704759b101f10c
:103760000c030c38801a1a443b461c1813f8015bf2
:1037700025709342f9d111f0030318bf012303eb25
:10378000910107eb81073a46e1e700bf00004020c6
:0837900000004020300640005b
:020000040000fa
:020000040040ba
:1037980080b582b000af1d4b5b6903f0e0037b602e
:1037a8007b68002b17d07b68dab2194b83f82d2081
:1037b80000f0c4fe154be122da60154b002283f8b5
:1037c8002c20134b5b6a002b05d0114b5b6a104a07
:1037d800926a104698470d4b5b6903f00103002b72
:1037e80001d0fff723fc094b5b6903f00203002bb0
:1037f80007d0064b1b6903f00203002b01d0fff72b
:10380800bbfd00bf0837bd4680bd00bf0040024079
:04381800180a40202a
:020000040000fa
:020000040040ba
:10381c0080b487b000af786039600023fb7500235b
:10382c003b617b68fb60fb68002b27d020e000bf6e
:10383c00164b5b6903f00203002bf9d0134b5b684a
:10384c0003f40033002b0bd03b695a1c3a615b002c
:10385c00fa6813441b880d4ac3f30803d36107e0cd
:10386c003b695a1c3a61fa6813441a78074bda61bf
:10387c003a683b699a42dad80123fb75fb7d1846fe
:10388c001c37bd465df8047b704700bf00800240ca
:020000040000fa
:020000040040ba
:10389c002de9ff471d460c9b13f00108074689468e
:1038ac00144624d1aa4222da2e1b102e32464ff097
:1038bc00200128bf10226846b24601f0e4fb0f2e0f
:1038cc001edc4fea1a136ff00f0202fb03a26946cb
:1038dc00384600f06fffb8f1000f04d1224649467c
:1038ec00384600f067ff284604b0bde8f087224652
:1038fc004946384600f05effac42d5db2546f2e780
:0e390c0010226946384600f055ff103ed7e7fe
:020000040000fa
:020000040040ba
:10391a00842910b523d00cdc812903d0822913d045
:10392a0080290bd119680c1d1c600b6803601a6092
:10393a0013e0902921d003dc882917d0002010bd7c
:10394a00a029efd0c029ece719680c1d1c600b6890
:10395a000360d1171046c3e900010120efe7196897
:10396a000c1d1c600b6803601a80f6e719680c1db1
:10397a001c600b6803601a70efe719680c1d1c6065
:0c398a0009680160d317c1e90023e6e7db
:020000040000fa
:020000040040ba
:103996002de9f84f04460c9f6668d4f80cb02469ec
:1039a60010463a68013c002502f0020a0b9a0bf811
:1039b6000450002e1946b8bf0126012390464fea4f
:1039c600e279002c03dcd3b12046bde8f88f50ea3b
:1039d600010209d1721b002a06dc0a9a521b002a30
:1039e600f1ddbaf1000feed042464b4601f04bf83e
:1039f600013c134630320bf804200135e1e73b6801
:083a060023f010033b60dfe731
:020000040000fa
:020000040040ba
:103a0e00f8b5846a05460f46164654b1ab6a6a6924
:103a1e009b1ab3420bd2324639462846fff72bfe8d
:103a2e00f8bd01f0cffa0028f0d02046f8e7002ebe
:103a3e00f1d095f93430002b1bdbdbb23446621e1d
:103a4e00b95c994212d1224639462846fff713fe39
:103a5e00a042e5d32744341b22463946686901f05b
:103a6e00d6fa6b691c446c613046d9e71446002abd
:063a7e00e5d13446f0e73b
:020000040000fa
:020000040040ba
:103a8400f0b50c4649682368a768e56887b0002943
:103a94000593a4bf23f00203059305ab0293082307
:103aa400cde900730646d2e900232046fff771fff3
:103ab400059bd90642bf00f1ff3030232b54059bf0
:103ac4001a0742bf00f1ff3020232b542269059bc3
:103ad4000093013a3b46121a29183046fff7dcfee0
:103ae4007368db0503d563689842b8bf184607b00e
:023af400f0bd23
:020000040000fa
:020000040040ba
:023af600704717
:020000040000fa
:020000040040ba
:103af80080b584b000af78600b467b807b88b3f5d7
:103b0800805f10d0b3f5805f03dcb3f5006f07d09a
:103b180012e0b3f5005f09d0b3f5804f09d00be090
:103b28000023fb730be02023fb7308e04023fb73a7
:103b380005e06023fb7302e00023fb7300bf7b6892
:103b48001878054b1978054b1a78fb7b00f052fb67
:103b580000bf1037bd4680bdfa0a40200b0b40203d
:020000040000fa
:020000040040ba
:103b680080b584b000af78607b681878144b1978fa
:103b7800144b1a78144b1b7800f03cfb0023bb60f5
:103b880002e0bb680133bb60bb6847f22f52934227
:103b9800f7d97b681a780a4b1b781946104600f04b
:103ba80053fb0346fb73084b1a78fb7b1340dbb2cd
:103bb800002b00d0e4e700bf1037bd4680bd00bf32
:0c3bc800f90a4020080b4020090b4020a7
:020000040000fa
:020000040040ba
:103bd40080b584b000af78600b467b807b88762b01
:103be4000ed0762b02dc452b07d012e0d72b0ad05f
:103bf40040f29b12934209d00be00023fb730be0cd
:103c04000123fb7308e00223fb7305e00323fb732a
:103c140002e00023fb7300bf7b681878054b19781a
:103c2400054b1a78fb7b00f0e7fa00bf1037bd465e
:0c3c340080bd00bffa0a40200d0b4020ac
:020000040000fa
:020000040040ba
:103c400080b400af174b1b6b164a23f0700313634d
:103c500000bf144b9b6e03f00803082bf9d1114be6
:103c60001b6b23f440730f4a43f48073136300bf4c
:103c70000c4b9b6e03f00803082bf9d1094b1b6b0f
:103c800023f00303074a43f00203136300bf054b0d
:103c90009b6e03f00803082bf9d100bfbd465df809
:083ca000047b704700060e4092
:020000040000fa
:020000040040ba
:103ca80037b50d46044610b9002003b030bd43684f
:103cb8009b0607d5d0e905239a4219d80023c4e901
:103cc8000533a362d4e90f239a4206d2d21a0123fc
:103cd80000932068d317fff745f90023c4e90f3391
:103ce800002de1d0206803b0bde8304001f018badb
:103cf8000022c36a114698476369002bded14ff052
:043d0800ff30d2e7cf
:020000040000fa
:020000040040ba
:103d0c0080b584b000af7860144b1b783b730023f4
:103d1c007b730023bb730023fb737b681b789bb204
:103d2c0007f10c010422184600f088f900bf01f0dd
:103d3c0099f80346002bfad100237b8104e07b89a0
:103d4c009bb201339bb27b817b899bb240f2ed220b
:103d5c009342f4d900bf1037bd4680bdf50a402010
:020000040000fa
:020000040040ba
:103d6c007fb5c36800911546002b18bf013a01922c
:103d7c0082680446cde902230e4602226946006899
:103d8c0000f0a0ff002808dc00f0180383f0080204
:103d9c0063681343636005460fe0019a8242fad2ce
:103dac00a368e363801ae268184420642ab15a1ca1
:103dbc00e2632e441b7806f8013c284604b070bd23
:020000040000fa
:020000040040ba
:103dcc0080b584b000afb9607a603b600346fb817c
:103ddc00114b1b7f5bb2002b01d0002317e00e4a66
:103dec00fb8913800c4a3b6893600b4abb691361d7
:103dfc00094abb685360084a7b68d360064b0022b3
:103e0c005a77fb8900211846fef7eafd0123184674
:0c3e1c001037bd4680bd00bf480a4020a2
:020000040000fa
:020000040040ba
:103e280008b50f4b98470f4b984700f0a9fb0020a7
:103e3800fff732f800f0aefdfff766fc0a4b23f0ff
:103e48007f030a4a93600a4b984700f04ffafff73e
:103e5800cdfb084b9847084b9847fdf73bfefee71c
:103e6800f73a4000f73a40000000400000ed00e05b
:0c3e7800853e4000f73a4000f73a400059
:020000040000fa
:020000040040ba
:103e84000e4a38b5002313600d4a0e4c13600e4ad7
:103e94000e4d13600e4a13600e4a13600e4a5362ad
:103ea40013610123936001f002f900f07af9ac4246
:103eb40000d338bd54f8043b9847f8e7e80a40209b
:103ec400d409402074014000d0094020780140000a
:0c3ed400c8094020cc094020d80940203b
:020000040000fa
:020000040040ba
:103ee0002021222324242525262627272828282880
:103ef000292929292a2a2a2a2b2b2b2b2c2c2c2c1a
:103f00002c2c2c2c2d2d2d2d2d2d2d2d2e2e2e2ee1
:103f10002e2e2e2e2f2f2f2f2f2f2f2f0001170257
:103f20001d1813031e1b190b1408040d1f161c1259
:0c3f30001a0a070c1511090610050f0ee7
:020000040000fa
:020000040040ba
:103f3c0080b500af002000f04bfabff35f8f62b684
:103f4c000721032000f02af9032000f0bbfb072116
:103f5c000a2000f023f90a2000f0b4fb07210d2001
:103f6c0000f01cf90d2000f0adfb0621132000f031
:103f7c0015f9132000f0a6fb0721172000f00ef90d
:0a3f8c00172000f09ffb00bf80bd6e
:020000040000fa
:020000040040ba
:103f960080b584b000af0346fb710b46bb71134678
:103fa6007b71bb793b737b797b73fb799bb207f1a2
:103fb6000c010222184600f044f800bf00f055ff3d
:103fc6000346002bfad100237b8104e07b899bb258
:103fd60001339bb27b817b899bb240f2ed229342f7
:0a3fe600f4d900bf1037bd4680bdbe
:020000040000fa
:020000040040ba
:103ff00080b400af124b80221a60114b28221a6045
:104000000f4b1b6903f07c520d494bf2c013134355
:104010000b610b4b4ff080721a60094b4ff44072ea
:104020005a62074b04221a60064b00225a77054b4e
:1040300000221a7700bfbd465df8047b704700bfc1
:0840400000800140480a402005
:020000040000fa
:020000040040ba
:1040480080b584b000af0346b9607a60fb81114b3c
:104058001b7f5bb2002b01d0002317e00d4afb89c0
:1040680013800c4b00229a600a4b00221a61094afd
:10407800bb685360074a7b68d360064b00225a77b7
:10408800fb8900211846fef7adfc012318461037be
:08409800bd4680bd480a40202e
:020000040000fa
:020000040040ba
:1040a00070b5d0e90245a54217d10122a1f1200344
:1040b000c1f1200622fa06f602fa03f333438a40de
:1040c000db43d6431ab10b490a6832400a605a1cd6
:1040d0001fbf084a51680b4053604368ac6043f00f
:1040e000010223f00103e5604260c25842f0010280
:0840f000c25070bd080440201d
:020000040000fa
:020000040040ba
:1040f8002de9ff41134dd1f80080af88adf80c7061
:1041080006462868029002aca8798df80e00002aad
:1041180018bf1446d1e901571a461bb9204600f0ca
:10412800bcff0246002d02dbaa4228bf2a46cdf872
:1041380000803b4621463046fff7acfb04b0bde8a3
:08414800f08100bf305140007e
:020000040000fa
:020000040040ba
:10415000f0b50c4649682368a668e76887b000296f
:104160000593a4bf23f00203059305ab02930a2332
:10417000cde900630546d2e900232046fff70bfc9a
:104180002269059b0093013a3346121a39182846d2
:10419000fff784fb6b68db0503d563689842b8bf03
:0641a000184607b0f0bd57
:020000040000fa
:020000040040ba
:0241a600704760
:020000040000fa
:020000040040ba
:1041a80080b483b000af03463960fb7197f90730dc
:1041b800002b0adb3b68dab20c4997f90730520149
:1041c800d2b20b4483f800230ae03b68dab208490c
:1041d800fb7903f00f03043b5201d2b20b441a7669
:1041e80000bf0c37bd465df8047b704700e100e076
:0441f80000ed00e0f6
:020000040000fa
:020000040040ba
:1041fc0090b585b000af0446084611461a462346d2
:10420c00fb710346bb710b467b7113463b71ba794c
:10421c00fb791146184600f015f80346fb73fb7b3f
:10422c00bb73ba7b7b791340bb73ba7b3b7913436b
:10423c00dab2b979fb791846fff7a7fe00bf14373d
:04424c00bd4690bd1e
:020000040000fa
:020000040040ba
:1042500080b586b002af03460a46fb711346bb71b8
:10426000fb7998b207f10d02b91d012300931346a3
:104270000122fff7abfd00bf00f0fafd0346002b63
:10428000fad104e0fb899bb201339bb2fb81fb892d
:104290009bb240f2ed229342f4d97b7b1846103753
:0442a000bd4680bdda
:020000040000fa
:020000040040ba
:1042a40080b582b000af786000f034fe00f074fc9a
:1042b40000f000fefef708f80b4b4ff400425a6082
:1042c4000a4b4ff400425a6000f082fd00f038fcc3
:1042d400fff78cfe00f0b8fd00f02efbfff72cfe7c
:1042e40000bf0837bd4680bd00190e4050180e406f
:020000040000fa
:020000040040ba
:1042f40080b400af114b5b6903f40033002b01d091
:1043040000bf15e0bff34f8fbff36f8f0b4b00223d
:10431400c3f85022bff34f8fbff36f8f074b5b6916
:10432400064a43f400335361bff34f8fbff36f8fdb
:1043340000bfbd465df8047b704700bf00ed00e0a0
:020000040000fa
:020000040040ba
:1043440080b485b000af78600023fb600e4b1b681f
:1043540003f48033fb600c4b1b680b4a23f480335b
:104364001360094a7b685360fb68002b05d0064b39
:104374001b68054a43f48033136000bf1437bd46fd
:0c4384005df8047b704700bf30180e404d
:020000040000fa
:020000040040ba
:10439000022a70b5044616461d461ad043689b068d
:1043a00017d441b9002d08bf4ff4806505f108000e
:1043b000fef78ef801466368012e43f02003636028
:1043c000c4e9021514bfff230a2384f83430024bda
:0c43d000e362002070bd00bf0f3a400007
:020000040000fa
:020000040040ba
:1043dc0080b485b000af78607b6803f00703fb60a6
:1043ec000b4bdb68bb60ba684ff6ff031340bb6036
:1043fc00fb681a02bb681a43064b1343bb60044aa2
:10440c00bb68d36000bf1437bd465df8047b7047b2
:08441c0000ed00e00000fa05cc
:020000040000fa
:020000040040ba
:1044240080b400af0e4b02221a770e4b5b680d4a24
:1044340043f4805353600a4b1b69012b03d1094b8e
:1044440003221a6002e0074b01221a6062b6054b90
:1044540003225a6200bfbd465df8047b704700bf6b
:08446400480a402000800140dd
:020000040000fa
:020000040040ba
:10446c0080b582b000af78607b6818780a4b1978f9
:10447c000a4b1a780a4b1b78fff7bafe7b68187840
:10448c00054b1978074b1a787b685b78fff7b0fe01
:10449c0000bf0837bd4680bdf90a4020050b4020ff
:0844ac00060b40200a0b402022
:020000040000fa
:020000040040ba
:1044b40080b582b000af78607b6818780a4b1978b1
:1044c4000a4b1a780a4b1b78fff796fe7b6818781c
:1044d400054b1978074b1a787b685b78fff78cfedd
:1044e40000bf0837bd4680bdf90a4020050b4020b7
:0844f400070b40200a0b4020d9
:020000040000fa
:020000040040ba
:1044fc0010b50278202a034600f10100f9d0a2f190
:10450c0009010429f5d92b2a07d02d2a11d1012113
:10451c000133013b00200a2403e00021f8e760434b
:10452c00801a13f8012f303a092af8d901b9404200
:06453c0010bd0021ede7b7
:020000040000fa
:020000040040ba
:024542007047c0
:020000040000fa
:020000040040ba
:1045440080b483b000af0023fb710d4b5b6903f0b3
:10455400e003002b0dd00a4b4ff480721a6002e086
:10456400074b9b69fb71064b5b6903f00103002b4e
:10457400f6d100bf0c37bd465df8047b704700bf21
:0445840000400240b1
:020000040000fa
:020000040040ba
:1045880080b483b000afeff310833b603b687b607f
:1045980072b60b4bd3f88830094a43f47003c2f85b
:1045a8008830bff34f8fbff36f8f7b68002b00d12c
:1045b80062b600bf0c37bd465df8047b704700bf8c
:0445c80000ed00e022
:020000040000fa
:020000040040ba
:1045cc0080b582b000af786039600b4800f05cfcbd
:1045dc000a4b9b6b094a83f02003936300f090f91c
:1045ec0003461d331846fff7a7fe054b03221a702e
:1045fc0000bf0837bd4680bd7c054000000e0e4054
:04460c00150b40202a
:020000040000fa
:020000040040ba
:1046100010b5054c237833b9044b13b10448aff3fc
:1046200000800123237010bd900a4020000000008c
:104630000000000008b5034b1bb103490348aff36a
:10464000008008bd00000000940a40200000000027
:020000040000fa
:020000040040ba
:104650000c4a036810b5546a0b4a591e121b8a4251
:104660000ad22bb1094b0c221a604ff0ff3010bd5b
:10467000102202600020fae7173323f00f030360d3
:10468000f8e700bfd8094020efffff7fec0a402089
:020000040000fa
:020000040040ba
:1046900070b5b9b115460ab1022801d9284670bdd6
:1046a0000a4b2bb108461146aff30080284670bd77
:1046b0000c468e1814f8010b00f058f9b442f9d1e9
:1046c000284670bd0d46284670bd00bf00000000a2
:020000040000fa
:020000040040ba
:1046d00080b483b000af0346fb7197f90730002b1d
:1046e0000bdbfb7903f01f02074997f907305b09e1
:1046f000012000fa02f241f8232000bf0c37bd462a
:0c4700005df8047b704700bf00e100e0a2
:020000040000fa
:020000040040ba
:10470c0080b485b000af78607b680b4aa2fb0323b2
:10471c00db08fb60fb681901fa6813469b00134425
:10472c005b001a467b689b1a0b4418461437bd462f
:0c473c005df8047b704700bfcdccccccf6
:020000040000fa
:020000040040ba
:1047480080b582b000af0b4b1b6a03f014037b608b
:104758007b68002b0ad0084b1b68002b06d0064b41
:104768001b68054a526811467868984700bf0837a1
:0c477800bd4680bd00c00040c00a4020cb
:020000040000fa
:020000040040ba
:1047840080b582b000af0346fb80b7f906305b11f9
:104794001bb25b021a46084b1344fa8802f01f024c
:1047a400012101fa02f21146184600f0c1fb00bfd4
:0c47b4000837bd4680bd00bf000e0e405f
:020000040000fa
:020000040040ba
:1047c00038b5436813f4807f0446154610d003695a
:1047d00040699a4228bf1d462a4600f01ffc6269c4
:1047e0005319636123695b1b23610023535538bd53
:0a47f000db06fcd400f006fcf9e73c
:020000040000fa
:020000040040ba
:0247fa00704706
:020000040000fa
:020000040040ba
:1047fc0080b582b000af78600b46fb707b68fa78ae
:10480c0083f808217b681878054b1978054b1a78c2
:10481c00fb78fff7edfc00bf0837bd4680bd00bf3d
:08482c00f80a4020040b4020b3
:020000040000fa
:020000040040ba
:1048340000090138202813d9b0f5007f05d2094baf
:1048440003ebd00010f8040c7047b0f5e05f06d815
:10485400044b03ebd01010f8040c103070473f20c9
:08486400704700bfe03e400078
:020000040000fa
:020000040040ba
:10486c0030b50c4a002312f8134024b902eb430371
:10487c005b78184630bd01680d78a54209bf02eb84
:10488c00430301335b78013114bfdbb201600a2ba7
:08489c00e9d9eee76c4f400082
:020000040000fa
:020000040040ba
:1048a40080b582b000af78600b46fb707b68fa7805
:1048b4005a707b681878054b1978054b1a78fb7881
:1048c400fff79afc00bf0837bd4680bdf90a4020b7
:0448d4000a0b40206b
:020000040000fa
:020000040040ba
:1048d80080b58cb000af01237b600223bb6003234b
:1048e800fb6004233b6105237b6141f68523bb61a3
:1048f8000023fb613b1d1846fdf7befe00bf3037a5
:04490800bd4680bd6b
:020000040000fa
:020000040040ba
:10490c0080b483b000af094b9b687b6002e0074b1f
:10491c009b687b60054b9b687a689a42f7d17b68f1
:10492c0018460c37bd465df8047b704730180e40b6
:020000040000fa
:020000040040ba
:10493c0080b400af094b4ff486721a60074b5022bb
:10494c001a60064b4ff40c625a60044b51221a62e7
:10495c0000bfbd465df8047b704700bf008002407d
:020000040000fa
:020000040040ba
:10496c0080b584b000af0346fb710023fb73fb1dc5
:10497c0001211846fef74cff0346fb73fb7b83f0cb
:10498c000103dbb2002bf2d100bf1037bd4680bd56
:020000040000fa
:020000040040ba
:10499c00bff34f8fbff36f8f084bd3f8902222f0e9
:1049ac000102c3f89022d3f8942222f00102c3f83a
:1049bc009422bff34f8fbff36f8f704700ed00e071
:020000040000fa
:020000040040ba
:1049cc0080b582b000af78607b681878054b197899
:1049dc00054b1a78054b1b78fff70afc00bf08370c
:1049ec00bd4680bdf40a4020010b4020020b402044
:020000040000fa
:020000040040ba
:1049fc0080b582b000af78600b46fb707b68fa78ac
:104a0c00da707b681878054b1b78fa781946fff733
:104a1c00bcfa00bf0837bd4680bd00bffb0a402072
:020000040000fa
:020000040040ba
:104a2c0080b582b000af78600b46fb707b68fa787b
:104a3c001a717b681878054b1b78fa781946fff7c2
:104a4c00a4fa00bf0837bd4680bd00bffc0a402059
:020000040000fa
:020000040040ba
:104a5c0070b505462c68e30701d500200fe0204611
:104a6c00fff7e2fe064600f041fa2868a042f1d1b9
:104a7c0020f00100281a3146fff70cfb012070bd15
:020000040000fa
:020000040040ba
:104a8c0053b94ab9002908bf00281cbf4ff0ff31a9
:104a9c004ff0ff30fcf7ecb9adf1080c6de904ce2a
:104aac00fcf7aefeddf804e0dde9022304b070474c
:020000040000fa
:020000040040ba
:104abc0080b483b000af78607b681b0903f00f02f1
:104acc0013469b0013445b001a467b6803f00f03ec
:0e4adc00134418460c37bd465df8047b704746
:020000040000fa
:020000040040ba
:104aea00426822f00102531a102b30b40dd944182f
:104afa0041f0010543f0010345506360835045606e
:0e4b0a0004f1080030bcfef76cb830bc7047f8
:020000040000fa
:020000040040ba
:104b180080b400af074b084a9a6200bf054b9b6ef2
:104b280003f00203022bf9d100bfbd465df8047bf8
:0c4b3800704700bf00060e40013f18202f
:020000040000fa
:020000040040ba
:104b440080b400af084b00225a60074b00221a6061
:104b5400054b3f225a62044b3f22da6100bfbd4637
:0c4b64005df8047b704700bf60180e4035
:020000040000fa
:020000040040ba
:104b700080b400af084b1b68074a43f480231360de
:104b8000054b1b68044a23f48013136000bfbd4625
:0c4b90005df8047b704700bf30180e4039
:020000040000fa
:020000040040ba
:104b9c0080b500af074b1b681b680021184600f05e
:104bac006afa054b1b681b680021184600f063fa73
:0c4bbc0000bf80bd240840208c0a40206f
:020000040000fa
:020000040040ba
:104bc80080b584b000af78607b681a78064b1b7894
:104bd80019461046fff738fb0346fb73fb7b184664
:0c4be8001037bd4680bd00bfd60a40203b
:020000040000fa
:020000040040ba
:104bf40080b584b000af78607b681a78064b1b7868
:104c040019461046fff722fb0346fb73fb7b18464d
:0c4c14001037bd4680bd00bfd70a40200d
:020000040000fa
:020000040040ba
:104c200080b584b000af78607b681a78064b1b783b
:104c300019461046fff70cfb0346fb73fb7b184637
:0c4c40001037bd4680bd00bff50a4020c3
:020000040000fa
:020000040040ba
:104c4c0080b584b000af78607b681a78064b1b780f
:104c5c0019461046fff7f6fa0346fb73fb7b184622
:0c4c6c001037bd4680bd00bff60a402096
:020000040000fa
:020000040040ba
:104c780080b584b000af78607b681a78064b1b78e3
:104c880019461046fff7e0fa0346fb73fb7b18460c
:0c4c98001037bd4680bd00bf000b40205f
:020000040000fa
:020000040040ba
:104ca40080b584b000af78607b681a78064b1b78b7
:104cb40019461046fff7cafa0346fb73fb7b1846f6
:0c4cc4001037bd4680bd00bfff0a402035
:020000040000fa
:020000040040ba
:104cd0002de9f0410024804617460d462646be4287
:104ce00005f1080502db2046bde8f08155e9021216
:0c4cf000404600f015fa01360444f0e7dd
:020000040000fa
:020000040040ba
:104cfc0070b505466c68e30701d500200de0204631
:104d0c00fff792fd064600f0f1f86b68a342f1d173
:0c4d1c0028463146fff7bef9012070bdab
:020000040000fa
:020000040040ba
:104d28002de9f0410024804617460d462646be422e
:104d380005f1080502db2046bde8f08155e90212bd
:0c4d48004046fff7a1fc01360444f0e7f0
:020000040000fa
:020000040040ba
:104d5400074a136843b10749184488428cbf4ff08f
:104d6400ff33106018467047034b1360f3e700bf2e
:0c4d7400f00a4020180d4020180b4020d1
:020000040000fa
:020000040040ba
:104d8000802910db812901dd83290cd113680733c9
:104d900023f0070303f108011160d3e90023c0e900
:0a4da0000023012070470020704737
:020000040000fa
:020000040040ba
:104dac0080b483b000af78603960064a7b681360ca
:104dbc00044a3b68536000bf0c37bd465df8047b6a
:084dcc00704700bfb80a402047
:020000040000fa
:020000040040ba
:104dd40080b400af064b00225a60054b054a9a6026
:104de400034b0022da6000bfbd465df8047b7047c8
:084df40010180e40005002a54a
:020000040000fa
:020000040040ba
:104dfc0080b500af00210648fff7d2ff002205491d
:104e0c000620fef7a7fb0620fff7b6fc00bf80bd0f
:084e1c00cd454000e1284000f3
:020000040000fa
:020000040040ba
:104e240090f948305a1e1343426880f8483012f013
:104e340004031bbf42f010024260c0e90f334ff07d
:084e4400ff3008bf184670475b
:020000040000fa
:020000040040ba
:104e4c0080b400af064b4ff480221a60044b4ff431
:104e5c008c121a6000bfbd465df8047b704700bf22
:044e6c0030180e40ac
:020000040000fa
:020000040040ba
:104e700080b400af064b1b7f5bb2002b01d1002337
:104e800000e001231846bd465df8047b704700bf73
:044e9000480a40206c
:020000040000fa
:020000040040ba
:104e94000fb407b5064b04aa1b6852f8041b186824
:104ea400019200f053f803b05df804eb04b07047ce
:044eb4008c0a402004
:020000040000fa
:020000040040ba
:104eb80080b500affff72cfefef7befe024b034a9b
:104ec8001a6100bf80bd00bf00060e40007c8b0049
:020000040000fa
:020000040040ba
:104ed80080b483b000af78607b6857221a707b6813
:104ee80000225a7000bf0c37bd465df8047b70473e
:020000040000fa
:020000040040ba
:104ef800064b013053f830203ab9c100a1f108023d
:104f08001a44194443f830204a6070470804402086
:020000040000fa
:020000040040ba
:104f180080b400af034b044a1a6000bfbd465df879
:0c4f2800047b7047000c0e4000060004e3
:020000040000fa
:020000040040ba
:104f340080b483b000af786039607b683a681a64e3
:0c4f440000bf0c37bd465df8047b7047d1
:020000040000fa
:020000040040ba
:104f500013b50446019201aafcf7defa636813f068
:0c4f6000100f18bf4ff0ff3002b010bd62
:020000040000fa
:020000040040ba
:104f6c0068076c094c836a9074a07ac000806888ca
:0c4f7c0000846c820081286e696c2900a2
:020000040000fa
:020000040040ba
:104f880080b500affff7befc03461d331846fff798
:0a4f9800d5f9fff7e9fd00bf80bd69
:020000040000fa
:020000040040ba
:104fa20080b483b000af78607b68083318460c3752
:084fb200bd465df8047b704769
:020000040000fa
:020000040040ba
:104fba0080b483b000af78607b68883318460c37ba
:084fca00bd465df8047b704751
:020000040000fa
:020000040040ba
:104fd20010b50446fff725ff28b9a368e268c4e9c3
:084fe20005331344a36210bd66
:020000040000fa
:020000040040ba
:104fec0010f5805f81bf034b404218604ff0ff30db
:084ffc00704700bfec0a4020e1
:020000040000fa
:020000040040ba
:1050040010b4c46a1cb123465df8044b1847006809
:085014005df8044bfff73abb05
:020000040000fa
:020000040040ba
:10501c0010b5431e0a44914200d110bd11f8014b4a
:06502c0003f8014ff7e755
:020000040000fa
:020000040040ba
:105032000068002808b501da002008bdfff789fee4
:06504200431cfad1f8e75f
:020000040000fa
:020000040040ba
:1050480080b500af0248fdf7bffe00bf80bd00bfbe
:04505800000e0e40f8
:020000040000fa
:020000040040ba
:10505c0008b500f05bf8024b1860586008bd00bf43
:04506c00c80a40200e
:020000040000fa
:020000040040ba
:10507000034611f8012b184603f8012b002af8d13a
:02508000704777
:020000040000fa
:020000040040ba
:1050820000294ff480630cbf02220022fff77fb990
:020000040000fa
:020000040040ba
:1050920002440346934200d1704703f8011bf9e72b
:020000040000fa
:020000040040ba
:1050a20003461a46013311780029fad1101a7047c3
:020000040000fa
:020000040040ba
:1050b20008b5fff7d2fffff743fafff741fa08bd41
:020000040000fa
:020000040040ba
:1050c200494e4600696e66004e414e006e616e00aa
:1050d200494e4600696e66004e414e006e616e009a
:020000040000fa
:020000040040ba
:0e50e20080b400af00bfbd465df8047b704790
:020000040000fa
:020000040040ba
:0e50f000a0f14103192b98bf40f0200070473b
:020000040000fa
:020000040040ba
:0e50fe00a0f16103192b98bf00f05f0070470e
:020000040000fa
:020000040040ba
:0c510c0010b50446fff7aeff204610bdb2
:020000040000fa
:020000040040ba
:08511800004870479808402090
:020000040000fa
:020000040040ba
:085120006ff00800fff762bf09
:020000040000fa
:020000040040ba
:085128004ff0ff30704700bf9b
:020000040000fa
:020000040040ba
:07513000286e756c6c29006c
:020000040000fa
:020000040040ba
:0651380080b400affee7a9
:020000040000fa
:020000040040ba
:06513e0080b400affee7a3
:020000040000fa
:020000040040ba
:0651440080b400affee79d
:020000040000fa
:020000040040ba
:06514a0080b400affee797
:020000040000fa
:020000040040ba
:0651500080b400affee791
:020000040000fa
:020000040040ba
:0651560080b400affee78b
:020000040000fa
:020000040040ba
:06515c0000200021704755
:020000040000fa
:020000040040ba
:065162000068fff794ba9b
:020000040000fa
:02000004d0002a
:0400000002000000fa
:00000001FF
